:020000040001F9
:10B00000002F0020D5B00100EFB00100F1B0010029
:10B010000000000000000000000000000000000030
:10B02000000000000000000000000000F3B001007C
:10B030000000000000000000F5B00100F7B00100C2
:10B0400099B50100F9B00100B5B60100F9B00100F1
:10B05000F9B0010000000000CDB10100F9B001001D
:10B06000F9B00100F9B00100F9B00100F9B0010038
:10B07000F9B00100F9B00100F9B00100F9B0010028
:10B08000F9B00100EDB50100F9B00100F9B001001F
:10B0900015B60100F9B001001DB60100F9B00100BC
:10B0A000F9B00100F9B0010000000000000000004C
:10B0B0000000000000000000000000000000000090
:10B0C0000348854600F070F80048004775D5010038
:10B0D000002F00200321094802680A430260084843
:10B0E00002680A4302600748804707480047FEE7B6
:10B0F000FEE7FEE7FEE7FEE7FEE70000240500406E
:10B100005405004051B60100C1B0010030B50B46F6
:10B11000014600202022012409E00D46D5409D4231
:10B1200005D31D469540491B2546954040191546B7
:10B13000521E002DF1DC30BD70B5002425460028DC
:10B1400001DA01244042002901DA01254942FFF7D2
:10B15000DDFFAC4200D04042002C00D0494270BD1F
:10B1600003460B439B0703D009E008C9121F08C020
:10B17000042AFAD203E00B780370401C491C521ECB
:10B18000F9D27047D2B201E00270401C491EFBD2D6
:10B1900070470022F6E710B513460A4604461946E2
:10B1A000FFF7F0FF204610BD064C0125064E05E0D6
:10B1B000E36807CC2B430C3C98471034B442F7D3D8
:10B1C000FFF782FFFCF201001CF30100F0B58FB025
:10B1D00000200E900D90FF2001300C9001260024DD
:10B1E00016E00C9802F0A2FD00280BD000BF924898
:10B1F00040683040002805D00C9802F08FFD0E9872
:10B2000030430E9076000C98001D80B20C90641CA8
:10B21000042CE6D3FF207D3002F088FD00280DD0FD
:10B22000FF207D3002F07AFD0121C9070E98084306
:10B230000E900DAA0121002002F052FD0E98000789
:10B24000000F00282CD00126002427E00E98304063
:10B25000002821D000BF7948512109014018A100E0
:10B2600040581F2109020840000A074600BF7348E2
:10B27000512109014018A100405803210904084048
:10B28000000C0B90204601F03FFD0546002D02D03A
:10B2900038460B99A84700BF7600641C042CD5D310
:10B2A0000E98C00FC007002876D000200B900A909F
:10B2B000002505E00020C043A90009AA50506D1CDC
:10B2C000002DF7D000BF00200B9000247AE05C48EE
:10B2D000005D0890C02108988843074658480057E9
:10B2E000401C00286DD009A9384602F020FA002839
:10B2F00067D0C0210898084080110790384601F0B7
:10B300000BFD059001F000FD06900698002802D183
:10B310000798032854D10798032815D10AA8039742
:10B320000290039FF9080191039F7907490F039148
:10B3300001990298415C0123039A93401943CAB2D0
:10B340000199425400BF00BF00BF00BF052109079B
:10B350000846B9000722120282185158032212042B
:10B360001140090C05910DA9384602F0E0F904904E
:10B370000498002802D00598022805D004980028D7
:10B380001DD1059803281AD10798032810D10598D4
:10B39000022802D1032001E04BE00220039038464E
:10B3A000039902F051FC0B98401CC0B20B9000BFF7
:10B3B0000698002803D03846069A0799904700BFA0
:10B3C00000BF641C042C82D30B9800282CD00127CA
:10B3D00008AA0121002002F083FC00250AE0A80051
:10B3E00008A90858A9000DAA5158884201D0002781
:10B3F00002E06D1C002DF2D000BF002F02D0002013
:10B400000B9010E000250CE0A80008A90858A9003E
:10B410000DAA5050A8000AA90858A90009AA50501E
:10B420006D1C002DF0D000BF0B98002800D04AE71B
:10B4300000BF0FB0F0BD000000630040006000409E
:10B4400054260020C206D20E01219140014A11600B
:10B450007047000080E200E0C206D20E0121914058
:10B46000014A11607047000080E100E0C206D20E80
:10B4700001219140014A11607047000000E100E0A5
:10B48000C206D20E01219140014A116070470000AE
:10B4900000E100E0C206D20E01219140014A116094
:10B4A0007047000000E200E010B5002819DA1A4ADF
:10B4B00003071B0F083B9B089B00D2588307DC0E39
:10B4C000FF23A3409A438B071B0E8407E40EA3407F
:10B4D0001A43114B0407240F083CA408A4001A5176
:10B4E00018E00E4A03231B02D21883089B00D2588F
:10B4F0008307DC0EFF23A3409A438B071B0E8407B0
:10B50000E40EA3401A43054B032424021B198408AC
:10B51000A4001A5110BD00001CED00E000E100E0A5
:10B5200010B5002819DA1A4A03071B0F083B9B08BD
:10B530009B00D2588307DC0EFF23A3409A438B075E
:10B540001B0E8407E40EA3401A43114B0407240F7B
:10B55000083CA408A4001A5118E00E4A03231B0259
:10B56000D21883089B00D2588307DC0EFF23A34028
:10B570009A438B071B0E8407E40EA3401A43054B26
:10B58000032424021B198408A4001A5110BD0000D2
:10B590001CED00E000E100E010B5FF20013002F0FA
:10B5A000D1F800280CD0FF20013002F0D6F801209D
:10B5B00002F0DAF801200C494870002001F0B2FBDB
:10B5C000FF20053002F0BEF800280BD0FF20053028
:10B5D00002F0C3F8022002F0C7F801200249887087
:10B5E00001F0A0FB10BD00000026002010B50020D7
:10B5F000074908600021064841608160C160002061
:10B60000034940390860486003F05AFA10BD000051
:10B610004011014010B503F063F910BD70B50B483F
:10B62000006800280ED0094800688047044600BF23
:10B630002546002D04D000BF284600F035FA00BF93
:10B6400000BF01E001F0E0FD70BD0000A02000207F
:10B6500010B501F06DFE002805D010481049486073
:10B66000C8131049886101F047FE002802D001206C
:10B670000D49886001F092FE00280ED00B4800684A
:10B68000012807D00A480949086000BF0748006838
:10B690000128FBD1C0200549486110BDDFFF07C06C
:10B6A00000050040006C00400006004000EC064031
:10B6B0007593000010B50249024803F0E9FB10BD84
:10B6C0005C2600200020004010B5024A024900F02C
:10B6D0003BF810BD61D101009820002030B47446C1
:10B6E000641E2578641CAB4204D3635D5B00E318E1
:10B6F00030BC18471D46F8E702E008C8121F08C111
:10B70000002AFAD170477047002001E001C1121FE2
:10B71000002AFBD1704700000146202909DA0120E8
:10B720008840054A1040002801D0012070470020C1
:10B73000FCE70120FAE70000FC06FFBC00BFEFF3C6
:10B740001081084672B67047F8B516460F46044693
:10B75000002503E03946B047641C6D1C20780028A2
:10B76000F8D12846F8BD0246002105E0505C0028CB
:10B7700001D001207047491C0629F7D30020F9E7C2
:10B78000F7B582B004461646002537880020308081
:10B790002D20005D00280CD03A463146039800F079
:10B7A0004AFE054600BF002D02D0284605B0F0BD78
:10B7B00000BFA07800280BD03A463146039800F02D
:10B7C00073FB054600BF002D01D02846EEE700BF01
:10B7D000E07800280DD0E17848B23B463246039924
:10B7E00001F098FC054600BF002D01D02846DDE79A
:10B7F00000BF606800280ED00020616808563B46F4
:10B800003246039903F040FA054600BF002D01D0EF
:10B810002846CBE700BF208900280FDD019700965E
:10B820000622022120460830039B03F05DFC0546FA
:10B8300000BF002D01D02846B8E700BF208A0028AD
:10B840000FDD019700960722032120461030039B4D
:10B8500003F04AFC054600BF002D01D02846A5E7AD
:10B8600000BF208B00280FDD0197009615221421C0
:10B8700020461830039B03F037FC054600BF002D1F
:10B8800001D0284692E700BF206A00280CD03B4632
:10B890003246206A039901F0D3FA054600BF002D15
:10B8A00001D0284682E700BF606A00280CD03B46E2
:10B8B0003246606A039901F09BFE054600BF002DE9
:10B8C00001D0284672E700BF2C20005D00280CDD67
:10B8D0003B4632462046039902F012FE054600BF61
:10B8E000002D01D0284661E700BF207800280CD049
:10B8F0003B4632462046039901F0B6FE054600BF9E
:10B90000002D01D0284651E700BF28464EE7000031
:10B9100070B504461748FFF726FF0546012C06D0F0
:10B92000022C0DD0032C14D0042C20D118E0124886
:10B930004078002803D0002D01D0012070BD00BF49
:10B940000D488078002803D0002D01D00220F5E7B3
:10B9500000BF0948C078002801D00320EEE700BFEF
:10B9600005480079002801D00420E7E700BF002047
:10B97000E4E70000152000201824002010B504463C
:10B980000521601CFFF7D8FBC8B210BD0146C8787E
:10B9900004221040002801D1072070470020FCE756
:10B9A00010B501220221002000F0C8FF044600BFAC
:10B9B000002C03D0072C01D0204610BD00BF072269
:10B9C0000221012000F0BAFF044600BF002C03D082
:10B9D000072C01D02046F0E700BF0A2200210846CC
:10B9E00000F0ACFF044600BF002C03D0072C01D0B0
:10B9F0002046E2E700BF0020DFE7000030B5A7B037
:10BA00003C2118A8FFF7C5FB022118A801700021EE
:10BA100081700521C1703C2109A8FFF7BAFB012103
:10BA20006846818610490E91202101A8FFF7B1FBDD
:10BA300001216846C17140200590B4200690002085
:10BA40000A4B01AA09A9009018A800F0E9FA0446D7
:10BA500000BF2546002D04D000BF284600F024F882
:10BA600000BF00BF27B030BDEA1F0020FBDD010092
:10BA700000BF00BF00BF00BF00BFBFF34F8F00BFBC
:10BA800000BF00BF06480749C86000BF00BF00BF35
:10BA9000BFF34F8F00BF00BF00BF00BF00BFFDE777
:10BAA0000400FA0500ED00E03EB5044600200090D9
:10BAB0000190029002946A4600210248FFF7D8FFE5
:10BAC0003EBD00000140000070B504460D46204612
:10BAD00001F004FB002805D02946204601F0F2FAC7
:10BAE000002070BD0520FCE70346002901D10E208F
:10BAF0007047002A03D0501E1040002801D00920B2
:10BB0000F6E71960501E988000209860D86000BF4A
:10BB1000EEE770B504460D46204601F0DFFAA18835
:10BB2000884205D82946204601F0EBFA002070BD76
:10BB30000420FCE710B503460C4600BF0D484068E2
:10BB4000002801D1082010BD00BF002A01D1072024
:10BB5000F9E7002B01D10720F5E71868007C0028E1
:10BB600001D00820EFE71968002008744C744A617E
:10BB700000BFE8E758200020F8B507460D461446F8
:10BB80001E4620468107890F002901D1012100E0CE
:10BB90000021002901D10720F8BD002C01D1072088
:10BBA000FAE702F055FB11480660002010490870C2
:10BBB000487008468570446000200E4908600E49B0
:10BBC00008700E4908701420FFF73CFC0321142074
:10BBD000FFF7A6FC1420FFF749FC384602F00EFBE5
:10BBE00002F006FB064908600020D5E7742000201B
:10BBF00058200020602000207020002071200020AC
:10BC000064200020F8B504460E461746254600BFBE
:10BC100010484068002801D10820F8BD00BF002C62
:10BC200001D10820F9E7052E01D20720F5E7686960
:10BC3000002801D10820F0E7687C012801D13046B6
:10BC400000E0002000903B4631462846009A02F072
:10BC5000E7FEE2E75820002070B50446254600BF05
:10BC60000A484068002801D1082070BD00BF002CA0
:10BC700002D06869002801D10820F6E70020287466
:10BC80000221284602F0FAFEEFE7000058200020CB
:10BC9000F8B504460F48077821460F48FFF714FF10
:10BCA0000090002F13D000200A49087001220B4990
:10BCB0000B4801F047FE054600BF2E46002E04D07B
:10BCC00000BF3046FFF7F0FE00BF00BF00BF009886
:10BCD000F8BD00008A20002078260020892000205E
:10BCE0007C200020FFB589B004460D461746304839
:10BCF0000760002D02D107200DB0F0BDA88882B2E8
:10BD00002C482968FFF7F0FE064600BF002E01D040
:10BD10003046F1E700BFA88982B22748A968FFF73B
:10BD2000E3FE064600BF002E01D03046E4E700BF28
:10BD30002022224901A8FFF713FA60690790207CAE
:10BD4000002801D0012000E000206946087608A9FB
:10BD50000C980870607C002801D00E2000E00020C4
:10BD600069464876E0680390A068049020680290D5
:10BD700060680190124A01A9124801F097FD064639
:10BD800000BF002E01D03046B6E700BF00200E49AC
:10BD900008702068401C002808D00A4801F00CFEFA
:10BDA00001220A49074801F0CDFDA5E70020A3E7DD
:10BDB000842000207826002088260020DCF2010064
:10BDC00059ED01007C2000208A20002089200020DD
:10BDD00070B5044621460C48FFF79BFE0546002D32
:10BDE00010D10A4801F0D2FE00280BD108490648BC
:10BDF000FFF76AFE002805D101220549034801F03A
:10BE00005DFE0546284670BD882600207C20002067
:10BE10008820002070B5044600BFFFF78FFC054660
:10BE20000E48406800280ED101200C4948600C489B
:10BE300000680C490840094908600A480849086038
:10BE40000020207001E001202070002D03D100BFF0
:10BE500062B600BF00BF00BF70BD00008C20002094
:10BE600080E100E0FC06FFBC70B5044625460C48A6
:10BE70004068002812D0002D10D1FFF75FFC064665
:10BE80000748006807490860002005494860002EFF
:10BE900003D100BF62B600BF00BF00BF00BF70BDCE
:10BEA0008C20002000E100E0F8B505460C4617465E
:10BEB0002088001DB84201D90C20F8BD684679DF02
:10BEC000064600BF002E01D03046F6E700BF032033
:10BED000218868542088401C2080192021886854BB
:10BEE0002088401C2080208841196846008803F083
:10BEF00081F82188401820800020DEE770B50546D3
:10BF00000C462068401C002805D0206801F0BCFECB
:10BF1000206801F06DFE6068401C002803D00021FD
:10BF2000606801F058FE2868A16905221202821893
:10BF3000516200BF617D227D28680B4613430526B0
:10BF400036028619F36600BF62682168286801F02E
:10BF50002FFF207D012816D1A068401C002803D0A7
:10BF60000021A06801F037FEE068401C002805D0E1
:10BF7000E06801F089FEE06801F03AFEA268E1683D
:10BF8000286801F0F3FE70BDF3B593B00D461F2194
:10BF9000129111911398002818D01398FFF7F6FC0E
:10BFA000044600BF002C02D0204615B0F0BD00BFF3
:10BFB00012AA09A91398FFF7E3FB044600BF002C5F
:10BFC00001D02046F1E700BF09AE02E000260020C4
:10BFD0001290002D17D0284602F056FC044600BFF0
:10BFE000002C01D02046E0E700BF11AA01A9284695
:10BFF000FFF7C6FB044600BF002C01D02046D4E763
:10C0000000BF01AF02E000270020119010A8808837
:10C01000C3B210A80089C1B23A46304672DFC4E705
:10C02000F8B504460F4615461E46002C01D0002DDB
:10C0300001D10E20F8BD0120574908700020574952
:10C040000870202229465648FFF78AF855480660AE
:10C050005549069808600020C043544908800721CC
:10C060005348FFF796F83C215248FFF792F82078A2
:10C0700050490870A0788870E078C870607848707F
:10C08000084662692169426101610146E268A0686F
:10C09000CA6088600846E269A169C2618161606A1C
:10C0A00000281BD044484349486244498160606A83
:10C0B00000884049496A0880606A80883D49496A29
:10C0C0008880002005E0616A8968095C3B4A115458
:10C0D000401C3849496A89888142F4D8A06A0028FE
:10C0E00024D0374937488160324988623449314821
:10C0F000806A8160A06A80882E49896A8880A06AE7
:10C1000000882C49896A0880002005E0A16A8968B6
:10C11000095C2B4A1154401C2649896A898881424E
:10C12000F4D82C20015D234820300173206A0028B8
:10C130000BD025481F490862206A4088096A488058
:10C14000206A00881B49096A08806068002802D0BC
:10C15000184960684860002008E0C100091A1B4ABD
:10C1600089181B4A12688300D150401C0828F4DB50
:10C17000002007E00101174A8A18154989688300E1
:10C18000CA50401C0828F5DB39460A48FFF7FCFE78
:10C19000009000984EE7000010200020132000209F
:10C1A0001824002024200020282000202020002007
:10C1B0001420002038240020742400208024002033
:10C1C000AC240020A02400201C2000200C250020EE
:10C1D000302000204425002010B504462088102877
:10C1E00004D0112806D01B280CD107E0204601F00E
:10C1F0002DFF08E0204601F059FF04E0204601F041
:10C2000075FF00E000BF00BF10BD000030B587B073
:10C21000054651480078002802D1082007B030BDFB
:10C220004E48057000F091FF002804D001204C49D1
:10C2300008700020F2E707214A48FEF7AAFF4A48A3
:10C240004078002803D04548007801280FD04648A0
:10C250008078002803D041480078012807D0424860
:10C260008078002812D03D48007802280ED13F483F
:10C270000068002807D001203D49087008203B498C
:10C280000968884702E00020394908702846FFF70E
:10C290003FFB3249087035480068002817D008462F
:10C2A0000078032803D00846007804280FD12E48D0
:10C2B000007800280BD02F480078002807D10120F3
:10C2C0002D490870072029490968884702E00020A5
:10C2D00029490870182101A8FEF75BFF0021684674
:10C2E000017101731D4800780300FFF7F7F9051885
:10C2F00004090E131C0001A802F068F9044613E0BB
:10C3000001A802F073F904460EE001A802F084F9D6
:10C31000044609E001A802F0B7F9044604E0002051
:10C320001649087000E000BF00BF0C4800780028E4
:10C3300006D001A873DF0446002C01D020466DE72B
:10C340000A480068002804D00C48007807490968AA
:10C350008847002062E70000102000201320002002
:10C360001120002014200020182400202420002068
:10C370001B2000202C2000202D2000201220002037
:10C3800070B505461C2229461448FEF7E9FE002038
:10C3900013490870286800280BD008221148296822
:10C3A000FEF7DEFE0F487ADF0446002C08D0204658
:10C3B00070BD0C487BDF0446002C01D02046F7E717
:10C3C0000020C04308490880002008490870084A36
:10C3D00000210848FFF7AEFBEAE70000C425002073
:10C3E00054200020402000204A2000204820002027
:10C3F00009F0010080F2010010B5044620881028E1
:10C4000006D0112808D012280ED0502810D107E0ED
:10C41000204601F0F9FD0CE0204601F021FE08E085
:10C42000204601F081FE04E0204601F0E1FD00E03D
:10C4300000BF00BF10BDFEB505460C46174620885C
:10C440000930B84201D90C20FEBD684671DF0646AE
:10C4500000BF002E01D03046F6E700BF082021883B
:10C4600068542088401C20801B2021886854208824
:10C47000401C208021884819062200A90131FEF7BE
:10C480006FFE2088801D208068460078002802D139
:10C490002188685402E00120218868542088401CCB
:10C4A00020800020D0E7000010B504462046FFF7AA
:10C4B000A3FF2146064800F05DF8204601F0B8FCD5
:10C4C0002046FFF789FE204600F074F910BD0000F9
:10C4D000BC20002070B586B004460E46244B0FCB1E
:10C4E00001AD0FC500BF002C02D10E2006B070BDFB
:10C4F00000BF00BF002E01D10E20F7E700BF0020D3
:10C50000C043A0823068A0610020A075214601A828
:10C5100063DF054600BF002D01D02846E6E700BFD7
:10C5200021786846817501218182A21C05A901201C
:10C53000A0DF054600BF002D01D02846D6E700BF8A
:10C540003146204601F0D4FE054600BF002D01D043
:10C550002846CBE700BF3146204602F015FB0546D2
:10C5600000BF002D01D02846C0E700BF0020BDE776
:10C5700084F2010070B505460C46002D01D0002C58
:10C5800000D170BD2088102804D0112807D0502871
:10C590000FD109E02146284601F054FD0AE021466A
:10C5A000284601F07FFD05E02146284601F0E6FD22
:10C5B00000E000BF00BF00BFE3E7000037B584B074
:10C5C00004460D4600BF002C02D10E2007B030BD3E
:10C5D00000BFA08A0F49884202D0A07D002801D167
:10C5E0000820F3E76846008B142801DD0720EDE7FB
:10C5F00000200090019002900390A189684601807C
:10C60000039506A80290012168468170A08A6946B8
:10C61000A6DFDBE7FFFF000070B50446204602F00E
:10C62000E3FC0546E807C00F70BD000070B586B09A
:10C6300021480068059000BF002348221F4905A833
:10C6400002F0C8F8054600BF2E46002E04D000BFF9
:10C650003046FFF729FA00BF00BF00BF6A4601213C
:10C66000002002F095F8044600BF2546002D04D0B6
:10C6700000BF2846FFF718FA00BF00BF684602F067
:10C6800073F8044600BF2546002D04D000BF28469D
:10C69000FFF70AFA00BF00BF094802F057F8044646
:10C6A00000BF2546002D04D000BF2846FFF7FCF947
:10C6B00000BF00BF06B070BD30F20100D8200020DE
:10C6C000A9C4010001460148405C704750F20100D6
:10C6D00030B502460C49885C00BF0524240721467A
:10C6E00024150C196368012484409C4305252D0200
:10C6F0004D19AC60012484401C4005252D024D19C4
:10C70000EC6000BF30BD00004CF2010010B50446E3
:10C710000249085D012101F0C3FA10BD4CF201008D
:10C7200010B504460249085D002101F0B9FA10BDB8
:10C730004CF2010010B501460A4B585C00BF0524BD
:10C740002407234600BF24151C196468C440E4076D
:10C75000E40F002C01D0012000E00020024601205F
:10C76000504010BD4CF2010010B5002403E02046FB
:10C77000FFF7CCFF641C042CF9D310BD10B50024C6
:10C7800003E02046FFF7CCFF641C042CF9D310BD56
:10C7900002460020C043002106E0054B5B5C93424B
:10C7A00001D1084602E0491C0429F6D300BF7047B6
:10C7B00050F2010070B505462888102802D01128D3
:10C7C00032D118E01A48006800280ED100F0ECFBC6
:10C7D000044600BF002C07D016480068002803D08C
:10C7E000204614490968884700BF11480068401C6A
:10C7F0000F49086019E00E480068401E0C490860A7
:10C800000846006800280ED1FFF7CAF8044600BFAA
:10C81000002C07D007480068002803D020460549AF
:10C820000968884700BF00E000BF00BF70BD00007E
:10C830000C2000200820002010B5002000F058FA3D
:10C84000044600BF002C03D0062C01D0204610BDAA
:10C8500000BF012000F04CFA044600BF002C03D0BA
:10C86000062C01D02046F2E700BF0020EFE70000D1
:10C87000F3B581B00746002500243846FFF788FF4E
:10C880000446042C42D20298002825D0012802D068
:10C8900002283AD133E06000201822490D5C600084
:10C8A00020184018407800280ED01F4800680A223F
:10C8B000504301461D4A1E480068FFF7A3F906468B
:10C8C000002E01D119480770600020181549401842
:10C8D00080781849085518E015480068FFF7BCF93A
:10C8E0001448005D610061180E4A891889788842F1
:10C8F00004D16000201811464018857805E06000DA
:10C90000201808494018457800BF00BF002D07D007
:10C9100009480068002803D0284607490968884765
:10C92000FEBD0000EC230020F41F002000200020AA
:10C930005CF2010001200020FC1F002030B50346FE
:10C940000020042B24D2012A07D1012903D11C463F
:10C950000E34E4B200E00024224600290FD0012961
:10C9600002D0022911D104E05C001C19094D2A559E
:10C970000DE05C001C19074D6419627007E05C0053
:10C980001C19044D6419A27001E0072000BF00E0EB
:10C99000072030BDEC23002070B504460025064872
:10C9A0000078C007C00F002803D0204600F006F82A
:10C9B0000546284670BD0000F81F0020F8B5044663
:10C9C00000250026C5480078002804D00020C3496F
:10C9D0000870FFF7C9FE2300FEF780FE180D121342
:10C9E000406D9BC7D5DBF9F7F6F5F4F3F2F1F0EF04
:10C9F000EEEDECEBEAE9FFF7B7FEB94804706AE147
:10CA000000BF0020FFF796FE00280BD00020FFF7A4
:10CA10007DFE022C02D1E120C00001E07D2040011A
:10CA2000064609E00020FFF77BFE022C01D1C8205A
:10CA300001E0FF2091300646A94804706421304689
:10CA4000FEF764FBA74909684843074600223946B8
:10CA5000A5480068FFF7D6F805463CE10020FFF73F
:10CA600069FE00280BD00020FFF750FE032C02D1F6
:10CA70001920400101E07D204001064609E0002028
:10CA8000FFF74EFE032C01D1C82001E0FF209130BA
:10CA900006469348047064213046FEF737FB9149FF
:10CAA000096848430746002239468F480068FFF767
:10CAB000A9F805460FE10020FFF73CFE00280BD047
:10CAC0000020FFF723FE042C02D17D20400101E06D
:10CAD0007D20400106460AE00020FFF721FE042CDD
:10CAE00002D1FF20913001E0FF20913006467C48C2
:10CAF000047064213046FEF709FB7A49096848430F
:10CB000007460022394678480068FFF77BF805465B
:10CB1000E1E00020FFF70EFE00280AD00020FFF71A
:10CB2000F5FD052C01D1C82001E07D20400106461D
:10CB300009E00020FFF7F4FD052C01D1C82001E039
:10CB4000FF20913006466648047064213046FEF7A7
:10CB5000DDFA6449096848430746002239466248BD
:10CB60000068FFF74FF80546B5E00020FFF7B0FD7D
:10CB70005B4804705B48002201685B480068FFF76F
:10CB800041F80546A7E00020FFF7CAFD54480470AD
:10CB9000A1E0012051490870FFF79AFD5148002299
:10CBA000016851480068FFF72DF8054693E091E0D1
:10CBB0008BE089E07DE074E06BE065E03EE03CE026
:10CBC0003AE038E036E030E01FE010E0FFE7012017
:10CBD00042490870FFF77CFD4248006882008118D6
:10CBE000002241480068FFF70DF8054673E0012078
:10CBF0003A490870FFF76CFD3A48002201683A484C
:10CC00000068FEF7FFFF054665E001203349087024
:10CC1000FFF75EFD33480068820081180022324829
:10CC20000068FEF7EFFF054655E0FFF7A7FD2C482B
:10CC3000047050E000BF00BF00BF00BF2B48006879
:10CC4000FFF70AF805461120061B002E18D0002D0C
:10CC500016D1012E10D9C821714308466421FEF770
:10CC600055FA2049096848430746002239461F48BB
:10CC70000068FEF7C7FF05460220FFF751FD02E0FE
:10CC80000220FFF743FD26E0FFF76EFD1448047015
:10CC900021E0FFF769FD0020FFF742FD1048047016
:10CCA00019E0FFF761FD0120FFF73AFD0C48047021
:10CCB00011E0FFF759FD0020FFF732FD0120FFF7DB
:10CCC0002FFD0748047006E000BFFFF757FD04483A
:10CCD000047000E000BF00BF2846F8BDF11F00202F
:10CCE000F01F0020F41F002054F2010058F2010050
:10CCF00070B504462046FFF7E5FC0546032100F029
:10CD000083FF002070BD000001468800014A1058D2
:10CD10007047000014260020014601484056704725
:10CD20003426002070B50546002D01D1094C01E0E4
:10CD3000084C08340AE0204600F05AFB0646002E54
:10CD400000D104E028467168884700BFF3E700BFC0
:10CD500070BD000008260020FEB51F4800680028AE
:10CD600036D01D480068056801F042FA01901B4862
:10CD700004682146019801F08FFDC61C1848007810
:10CD8000002801D101F046FAAE4201D2284600E067
:10CD9000304604192402240A204601F023FA01F047
:10CDA00027FA00900199009801F076FDC71C2046F3
:10CDB000019901F071FD874209D901F019FA07467E
:10CDC00001F010FA2F2000F0D5FC01F0C3FE01E0C5
:10CDD00001F03EFAFEBD000060200020642000202B
:10CDE0007820002001460888062808DB08881922D8
:10CDF000D201904205DD0888104A904201D00720F8
:10CE000070474888062808DB48881922D2019042DA
:10CE100005DD4888094A904201D00720F0E70888DC
:10CE2000064A904208D04888904205D008884A882F
:10CE3000904201DD0720E3E70020E1E7FFFF00006B
:10CE4000FFB581B006460D4614462088801D049922
:10CE5000884202D90C2005B0F0BD3046FFF7C2FF72
:10CE6000074600BF002F01D03846F4E700BF052079
:10CE7000218868542088401C208012202188685412
:10CE80002088401C208022885119308802F0B2F896
:10CE900021884018208022885119708802F0AAF851
:10CEA0002188401820800020D5E710B5044600BF37
:10CEB0002046FEF7F9FD00BF10BD000030B587B079
:10CEC0001C216846FEF765F9002000900520C0038C
:10CED00001900F2000040290032168460173002195
:10CEE000C181017409480590094806906846FFF71A
:10CEF00047FA044600BF2546002D04D000BF28464F
:10CF0000FEF7D2FD00BF00BF07B030BDC1DF01009A
:10CF1000ABCE010038B51F4800F0DCF9002829D15C
:10CF20001D48007800280AD01C484069002820D0FD
:10CF300000200090194841696846884719E0184860
:10CF40000078002802D11548456801E0134885683B
:10CF50000022294613480068FEF754FE0446002CC0
:10CF600007D00E488069002803D00C48816920460C
:10CF700088470AE009484069002806D0012000904F
:10CF8000064841696846884700BF0020024908708A
:10CF900038BD00004C20002054200020C425002073
:10CFA0004820002080F2010010B50122002108462F
:10CFB000FFF7C4FC044600BF002C03D0072C01D0AF
:10CFC000204610BD00BF072202210120FFF7B6FC5A
:10CFD000044600BF002C03D0072C01D02046F0E708
:10CFE00000BF042202210020FFF7A8FC044600BF76
:10CFF000002C03D0072C01D02046E2E700BF002020
:10D00000DFE70000014614480078144A1278904285
:10D010001DD011480078401C0F4A1070104600784F
:10D02000022801D1002010700B48007880000C4AC3
:10D03000105808600B4A086812688018094A106086
:10D04000104600680002000A1060012070470020AE
:10D05000086000BFFAE70000702000207120002067
:10D060006820002064200020F0B50346002420E062
:10D07000134E306806689E4203D90668F61A0660A9
:10D080001BE006689B1B06683419002606600C4EE0
:10D0900035680B4FC6693E60C668002E08D00E1971
:10D0A0003602360A4660C66886601668C661156034
:10D0B00000BF034800680028DAD100BFF0BD0000BF
:10D0C0006020002070B504460D462A460021204607
:10D0D00000F00EF8A068401CA06070BD01468A6890
:10D0E000C868801A704701468A68C868801A704705
:10D0F00010B583685B18848823400468E35C137070
:10D1000010BDC26883881A4003689954C268521CD3
:10D11000C260704730B504461088C01C984201D9DF
:10D120000C2030BD0220158848551088401C108006
:10D130000120158848551088401C108015884C55D2
:10D140001088401C10800020EBE708B5684600F00E
:10D150000FF80098002801D0012008BD0020FCE74E
:10D1600070B504460D46E0B2FEF732FE204670BDB3
:10D170000146002901D1032070470248406E086033
:10D180000020F9E7982600203EB500BF68460078E9
:10D1900001090901491C009168460078F021884383
:10D1A0001030009000BF0A2214A168467CDF0446BC
:10D1B00000BF2546002D04D000BF2846FEF774FCB2
:10D1C00000BF00BF002001900290102168468180BE
:10D1D0003C21C18000210181FF219131418101A8C1
:10D1E0007ADF044600BF2546002D04D000BF284644
:10D1F000FEF75AFC00BF00BF3EBD00004B5F446F0E
:10D2000063746F725F310000F8B52C480078002815
:10D2100000D1F8BD00252A480068002801D101206E
:10D2200000E00020064600BF002D1ED125480078F2
:10D23000002800D0EDE7684652DF0446052C01D1F6
:10D24000012511E0002C04D000BF2046FEF72CFC85
:10D250000AE0009800F000FB1B480068002803D09B
:10D26000194900980968884700BF002E1DD115484C
:10D270000078002800D0CCE7144800880090694668
:10D280001348006861DF0446052C01D101260BE03C
:10D29000002C04D000BF2046FEF706FC04E00C483A
:10D2A000006807490968884700BF002D02D0002E9A
:10D2B00000D000E0B8E700BF00BFAAE7A42000202C
:10D2C000B0200020A5200020B4200020AC200020A9
:10D2D000A820002001464888064A1288904206DBB2
:10D2E0004888044A5288904201DC0120704700209F
:10D2F000FCE70000402000200C48008CC0B2012850
:10D3000012D10A48808C0007000F00280CD1074872
:10D31000806AF0210840402806D10448C06A0840CD
:10D32000002801D1012070470020FCE7C00F00F069
:10D330001948008CC0B201282CD11748808C0007F6
:10D34000000F002826D11448806AF02108400028E8
:10D3500006D11148C06A0840002801D10120704759
:10D360000D48806AF0210840102806D10A48C06A9A
:10D370000840002801D10120F1E70748806AF02128
:10D380000840302806D10448C06A0840002801D16E
:10D390000120E4E70020E2E7C00F00F01348008C12
:10D3A000C0B201281FD11148808C0007000F00284F
:10D3B00019D10E48806AF0210840A02806D10B48F8
:10D3C000C06A0840002801D1012070470748806AE0
:10D3D000F0210840D02806D10448C06A084000283F
:10D3E00001D10120F1E70020EFE70000C00F00F0BD
:10D3F00001460868002801D002680A6070470000F2
:10D4000070B51C4804781C48066826E01948416835
:10D41000182060430D18601CC4B216488078A042E2
:10D4200000D100242878022802D0032812D103E07A
:10D43000686801F0BDFA0EE007E00F4908680021B6
:10D4400001740D4AC169116000BF0B4800680028D3
:10D45000F3D100E000BF00BF00BF06484078A04203
:10D46000D4D105480068B04201D0012070BD002031
:10D47000FCE700005820002060200020F8B5054699
:10D48000374806685BE0002D02D02C46E56929E0AC
:10D4900034494A68097818235943501831490978A2
:10D4A000491C304A1170114609789278914202D194
:10D4B00000212C4A117044680178012902D1217C95
:10D4C000002900D03BE081686160C168A16001690A
:10D4D000E1604169A16124490978002901D0002156
:10D4E000616000BF214960680968401A0002000AB3
:10D4F0001F49884208D21D496068096801F0CCF9CB
:10D50000A168401820600FE018486168006801F0C9
:10D51000C3F90746A068B84203D9A068C01B2060C1
:10D5200001E00020206000BF00206060A0600120BA
:10D5300020740020E061204601F004FA00BF002DB5
:10D54000A1D1084800780749497888429BD104480E
:10D550000068B04201D00120F8BD0020FCE70000C7
:10D560006020002058200020792000206420002026
:10D57000FFFF7F0000BF0023184A05211846FEF771
:10D58000FBFA054600BF2E46002E04D000BF3046F1
:10D59000FEF78AFA00BF00BF00BF01F04BFCFFF7A7
:10D5A00045F8FFF7F1FD00F0F7FFFEF727FAFFF768
:10D5B00085FC0BA0FEF788F80320FEF727FE044643
:10D5C00000BF2546002D04D000BF2846FEF76CFAA8
:10D5D00000BF00BF00BF00F0F6FDFCE734230020D1
:10D5E0000D0A55415254205374617274210D0A0082
:10D5F000FFB581B005460E461446A888871C2088D2
:10D60000801CC1190498814202D90C2005B0F0BDDC
:10D61000FE2F01D90C20F9E7781C2188705420884E
:10D62000401C2080FF20218870542088401C2080CE
:10D6300022889119288801F0DDFC2188401820807B
:10D64000A88800280EDDA868002801D10720DDE7A2
:10D65000AA8823889819A968FDF782FD2088A988DF
:10D66000401820800020D1E7FFB583B005460F4663
:10D6700014462878012805D16878002802D10720AF
:10D6800007B0F0BD2088801C0699884209D8287808
:10D69000012808D12088801C6978411806988142A9
:10D6A00001D90C20ECE721880698401A801E86B22A
:10D6B00001962188891CC81901A97DDF029000BF4D
:10D6C0000298002801D00298DAE700BF28780228E3
:10D6D00006D168468088B04202DC092000900BE049
:10D6E000082000902878012805D16878B04202DC33
:10D6F0006878019000E0019668468088FE2801D98C
:10D700000C20BDE768468088401C2188785420881A
:10D71000401C20802188009878542088401C20805C
:10D72000218868468088081820800020A8E730B546
:10D7300002460B46D4085207520F012090401D5D4F
:10D74000284030BD014601208007081800680028E5
:10D7500001D0012070470020FCE700210122920740
:10D76000821811607047000001498860704700000E
:10D7700000030040002800D1704700BF00BF00BF79
:10D7800000BF00BF00BF00BF00BF00BF074909685E
:10D79000074A914200D101E000BF00BF01460139B4
:10D7A000084600D0EAE700BFE6E70000B820002006
:10D7B0000024F40010B5002417480078002801D098
:10D7C000852427E000201449886048600861C8600B
:10D7D00000BF00BF41098900104A89180968012269
:10D7E00082401140002901D0012100E000210029E0
:10D7F00003D10321002000F037F800BF01F03EF80C
:10D80000002804D101200649886100BF00BF012023
:10D8100001490870204610BD0026002000E100E00C
:10D820000005004008B5002000906846FEF7F2FAB7
:10D8300008480078002801D1FFF7BCFF0548C06800
:10D84000401C0449C8600120887068460078FEF7D3
:10D850000BFB08BD0026002010B50446002C01D1AA
:10D86000FFF760FA10BD000070B504460D4629466A
:10D870002046FDF719FE00BFE106C90E01208840D1
:10D880000549086000BF00BFE106C90E01208840BD
:10D890000249086000BF70BD80E200E000E100E0E6
:10D8A00001460803020E50B270470000FEB505465F
:10D8B0000E46174628791C21484320494418002069
:10D8C0000290E07E002803D0082002900298FEBD5E
:10D8D00031462846FEF712FB6760306920606068B9
:10D8E000002818D0307F0190FF211D31286800F0FA
:10D8F0003AFAFF214531286800F035FA10492868C6
:10D9000000F042FA2868FFF7CBFF00900199FFF77B
:10D91000ABFF00BF00BF00BF286804210522120230
:10D920008218116000BF00BF0020E0752076A0754E
:10D930000120E0760020A0760298C8E75C2600204F
:10D9400080000200FEB505460E46174628791C21C8
:10D95000484318494418002000906068002804D00B
:10D9600081218900286800F00AFAE07D002810D0A3
:10D97000207E00280BD06068002804D08121890017
:10D98000286800F001FA112001900198FEBD0120E5
:10D9900000900098002804D1E775E6606076207654
:10D9A00001E0266127763A4631462846009B00F082
:10D9B0001BF8EBE75C26002010B5044620791C21FB
:10D9C000484308494018807E002809D1204600F0CD
:10D9D0002FFD012120791C225043024A80188176B4
:10D9E00010BD00005C260020FFB583B004462079FE
:10D9F0001C21484330494518A87E002805D10698C7
:10DA0000002802D1204600F013FD686800284AD1A2
:10DA1000FF214531206800F0A6F900BF00BFFF21BB
:10DA20002531206800F097F90190FF210931206825
:10DA300000F091F90290FF214531206800F08BF948
:10DA400006460298002804D1002E02D10198002831
:10DA5000E5D00198002801D1002E00D007E029462A
:10DA6000206800F021FCE87D697E8842D6DC00BF9A
:10DA70000020E8750198002803D00327384607B036
:10DA8000F0BD002E02D00F273846F8E7A87E002808
:10DA900004D00021206800F088F903E00421206808
:10DAA00000F083F904E081218900206800F06CF91E
:10DAB00000273846E3E700005C260020F8B505465D
:10DAC0000E46174628791C21484309494418284620
:10DAD00000F05CF8002803D0112000900098F8BDF9
:10DAE000A775A6600020A082284600F003F8F6E79C
:10DAF0005C26002070B5044620791C214843224949
:10DB000045180026FF211D31206800F02CF908215E
:10DB1000206800F04AF92946206801F020F868687A
:10DB200000282FD115E000BFFF211D31206800F033
:10DB300012F9002804D1A88AFF2101318842F3D1CB
:10DB4000A88AFF210131884203D02946206801F0CC
:10DB500006F8A88AA97D8842E5DBA88AFF21013161
:10DB6000884201D10F260BE000BFFF211D31206844
:10DB700000F0F1F80028F8D00C21206800F015F929
:10DB80000020A875304670BD5C260020014608794B
:10DB90001C225043044A8018807D002801D00120B7
:10DBA00070470020FCE700005C260020F0B500BFB5
:10DBB00005252D072C4655000D439E003543059E37
:10DBC00036023543069E36043543860007273F025A
:10DBD000E719BD51F0BD7CB505460C46002000900C
:10DBE00023460246014601902846FFF7DFFF7CBD31
:10DBF0001CB5044600200090034601221146019006
:10DC00002046FFF7D3FF1CBD30B50A4600BF0523F1
:10DC10001B0719468300072424020C19E358032428
:10DC20002404A343840007252D024D192B518300A2
:10DC3000072424020C19E358140423438400072505
:10DC40002D024D192B5130BD30B50A4600BF0523BA
:10DC50001B0719468300072424020C19E3580324E8
:10DC60002404A343840007252D024D192B51830062
:10DC7000072424020C19E3581404234384000725C5
:10DC80002D024D192B5130BD00BF052109070A4651
:10DC90000121814005231B02D318996000BF704702
:10DCA00010B500290DD100BF00BF05221207134691
:10DCB00001228240052424021C19E26000BF00BF3B
:10DCC0000DE000BF00BF052212071346012282406B
:10DCD000052424021C19A26000BF00BF00BF10BDB4
:10DCE00078B50B46094C24680094014609E08D0084
:10DCF0006E46745905252D0265192D691560121D92
:10DD0000491CC4188C42F2D878BD000094F201007E
:10DD100001460148081870470060004010B50446ED
:10DD20002046FFF7F5FF0021016010BD10B5044645
:10DD30002046FFF7EDFF0068012800D110BD00204C
:10DD4000FCE701460922D2018A1810680922D20193
:10DD50008A181060704702465058002801D00120F0
:10DD600070470020FCE700224250704705231B0249
:10DD7000C318996005231B02C3181A617047032258
:10DD800012028218916070470322120282185160B9
:10DD9000704702460320000210184068084000281F
:10DDA00001D0012070470020FCE70122425070475B
:10DDB00005231B02C3185A6105231B02C318D9602F
:10DDC0007047F8B507460D461646002406E000BF2A
:10DDD000285DFDF7FDFF0028FAD1641CB442F6D39C
:10DDE00000BF0D20FDF7F4FF0028FAD100BF0A2084
:10DDF000FDF7EEFF0028FAD1F8BD70B50546002DFD
:10DE000010D0032D11D10220FEF7C6FD044600BF3D
:10DE10002646002E04D000BF3046FDF745FE00BF69
:10DE200000BF03E000F068FC00E000BF00BF70BD71
:10DE300070B588B0054628883A2859D008DC0228F1
:10DE400077D010280BD011281BD013286FD12BE0CE
:10DE500051287DD0522839D05528F7D157E00720D6
:10DE6000FEF79AFD044600BF2646002E04D000BFF0
:10DE70003046FDF719FE00BF00BFA8884F49088053
:10DE800098E00020FEF788FD044600BF2646002EDD
:10DE900004D000BF3046FDF707FE00BF00BF0020E2
:10DEA000C0434649088085E000231A46852143483F
:10DEB00000887FDF044600BF2646002E04D000BF46
:10DEC0003046FDF7F1FD00BF00BF73E000231A46A6
:10DED00019463A480088A9DF044600BF2646002EAE
:10DEE00004D000BF3046FDF7DFFD00BF00BF61E09A
:10DEF000A888132176DF044600BF2646002E04D0F2
:10DF000000BF3046FDF7D0FD00BF00BF52E0A8883B
:10DF1000132176DF044600BF2646002E04D000BF42
:10DF20003046FDF7C1FD00BF00BF43E001E040E027
:10DF30000EE0A888002167DF044600BF2646002EB9
:10DF400004D000BF3046FDF7AFFD00BF00BF31E099
:10DF50001022A91D04A8FDF703F96846007C0028DB
:10DF600026D004A8007A042807D004A8007A06283E
:10DF700003D004A8007A05281AD16846007C02283C
:10DF800002D16946087002E0012069460870FF204E
:10DF9000833069468880A888A8DF044600BF2646EB
:10DFA000002E04D000BF3046FDF77EFD00BF00BF4D
:10DFB00000E000BF00BF08B070BD0000E81F0020F7
:10DFC00070B50546287800280ED13B210748008807
:10DFD00076DF044600BF2646002E04D000BF304640
:10DFE000FDF762FD00BF00BF70BD0000E81F00200C
:10DFF00010B504460822A1180248FDF7B1F8FEF753
:10E0000089FF10BD4C20002010B50446A0880949A6
:10E0100008800822214618310748FDF7A1F80020A2
:10E02000064908700648C089002801D1FEF772FF32
:10E0300010BD00004A2000204C2000204820002075
:10E04000C42500208A88828270470000817D0129D2
:10E0500002D18188014A11807047000020200020F1
:10E0600070B505460020C0430A49088000200A49CF
:10E0700008700A480068FDF7EFFD0446002C07D041
:10E0800007488069002803D00548816920468847F1
:10E0900070BD00004A2000204820002080F20100CE
:10E0A000C42500200022D2438282704770B5054605
:10E0B00000200B490870A8880A49098888420DD1B8
:10E0C0000120FEF7A3F80446002C07D0064800689C
:10E0D000002803D0204604490968884770BD000025
:10E0E0002C200020202000202820002070B505468C
:10E0F000287A002800D070BD09480078FDF73EFC62
:10E100000646FEF783F80446002C07D00548006851
:10E11000002803D0204603490968884700BFEAE782
:10E12000132000202820002070B50546AC1D208853
:10E130001049C98988421BD16089022818D120461C
:10E140000C30FEF769FA002802D0FEF7E3FE0FE07C
:10E1500009480068FDF780FD0646002E07D00548F7
:10E160008069002803D0034881693046884700BF92
:10E1700070BD0000C425002080F2010070B5044687
:10E180000E46B51D2988208A81420ED16889022851
:10E190000BD128460C30FEF73FFA002802D00120B0
:10E1A000A0750FE00020A0750CE02888A1888842A7
:10E1B00008D1A069002805D06A8929460C3120467B
:10E1C000A369984770BD70B548DF044600BF254677
:10E1D000002D04D000BF2846FDF766FC00BF00BF3D
:10E1E00070BD000001490860704700004015014003
:10E1F00001484068704700000015014010B5044612
:10E200000348846003211120FDF78AF910BD000046
:10E210000015014010B5012000040A494860094971
:10E22000403948601120FDF70DF91120FDF71EF966
:10E230000120054908602F20FFF79CFA01200349BF
:10E24000087010BD401301400010014078200020EC
:10E2500010B51120012181400E4A116000BF01203C
:10E2600000040D4988600C494039886001200B4941
:10E2700048602F20FFF77EFA0120084988600020BF
:10E28000074908602F20FFF775FA0020054908703C
:10E2900010BD000080E100E040130140001001408B
:10E2A000642000207820002070B505460C46E07DF3
:10E2B00000280AD1FF2109312846FFF754FD00BF8D
:10E2C000052000022818806970BDFF210931284609
:10E2D000FFF749FD00BF0520000228188069C0B281
:10E2E000627EE1688854607E401C607600BFEBE788
:10E2F00030B58FB004460D460020079000BF684639
:10E30000007F01090901491C68460177007FF0215F
:10E31000884310306946087700BF00BF6846407FD9
:10E3200001090901491C68464177407FF021884373
:10E3300010306946487700BF6846807F06218843D1
:10E34000811C684681771C2108A8FCF722FF08A8D9
:10E35000007810218843411808A801700020099016
:10E360000B900C9007A80D9000200E902178684625
:10E370008171032181800020009000BF68460078F1
:10E3800001090901491C684601700078F0218843A1
:10E3900010306946087000BF00BF68464078010928
:10E3A0000901491C684641704078F02188431030CB
:10E3B0006946487000BF6846807806218843811C02
:10E3C00068468170807808218843014668468170DC
:10E3D0008078102188430146684681708078410822
:10E3E0004900491C68468170142102A8FCF7D1FE3F
:10E3F00001A8029068460390012101820021418218
:10E4000014218182608823460C3302AA08A9A2DF66
:10E410000FB030BD7FB504460D4616460120694653
:10E4200008706846057201966268216890477FBD52
:10E4300010B50446FF2125312068FFF794FCFF2129
:10E4400009312068FFF78FFC00212068FFF7ADFC41
:10E4500010BD000010B504462046FDF75DF9002808
:10E4600001D1234810BD204600280CDA214A0307B9
:10E470001B0F083B9B089B00D2588307DB0EDA403A
:10E480001206920F0BE01C4A03231B02D2188308CA
:10E490009B00D2588307DB0EDA401206920F11461A
:10E4A000042901D3002006E0002901D0022901D16E
:10E4B000002000E00120002802D10D48401CD1E7D7
:10E4C0000E48406800280DD0600980000B490858AC
:10E4D000E206D20E01219140084361098900074AF2
:10E4E000505002E02046FCF7CBFF0020BAE70000C6
:10E4F000012000001CED00E000E100E08C20002085
:10E50000FEB507460E461446B86A002801D107201A
:10E51000FEBD0020019037E0B96A0C2201985043FB
:10E520000D18A888801C00900098FE2801D90C20A6
:10E53000EEE70098401C218870542088401C208001
:10E540001620218870542088401C20802288911930
:10E55000288800F04FFD218840182080A8880028D6
:10E560000EDDA868002801D10720D1E7AA882388FA
:10E570009819A968FCF7F4FD2088A9884018208024
:10E580000198401CC0B201902C20C15D01988142CD
:10E59000C2DC0020BCE7000038B50020009009482C
:10E5A000009069460848FDF795FF044600BF2546E0
:10E5B000002D04D000BF2846FDF776FA00BF00BF4B
:10E5C00038BD0000C3DD0100BC2000200146012051
:10E5D000044A1070044848600120087000204882F6
:10E5E00008827047122000201420002001460220DB
:10E5F000064A107006484860012008700548808966
:10E6000048820448008908820020704712200020B8
:10E61000142000201824002070B504461548008AF4
:10E6200020821448808A60821248007800281BD01B
:10E6300011480078002817D100F0ECFD002813D015
:10E640000E48E0600220207204200D49C8700021AD
:10E650000B48FDF799FC0546002D01D0284670BDFA
:10E6600005200849087002E00320064908700020D0
:10E67000F5E70000182400202C2000203020002086
:10E68000382400201220002070B504461548008B65
:10E6900020821448808B60821248007800281BD0AA
:10E6A00011480078002817D100F0B4FD002813D0DD
:10E6B0000E48E0600220207204200D49C87000213D
:10E6C0000B48FDF761FC0546002D01D0284670BDC2
:10E6D00006200849087002E004200649087000205E
:10E6E000F5E70000182400202C2000203020002016
:10E6F000382400201220002070B50020FEF74CF9CD
:10E70000044600BF2546002D04D000BF2846FDF773
:10E71000CBF900BF00BFFEF78FF8044600BF2546C7
:10E72000002D04D000BF2846FDF7BEF900BF00BF92
:10E730003CDF044600BF2546002D04D000BF28461C
:10E74000FDF7B2F900BF00BF70BD0000014600BF79
:10E75000002901D10E20704700BF0248016000204F
:10E76000F9E70000B02000207CB50446074800907F
:10E770000098019001A9204660DF054600990198A4
:10E78000884200D100BF28467CBD0000E81F002061
:10E7900070B505460E46144614212046FCF7F9FCD8
:10E7A00001202080002121610020207326726572E3
:10E7B000607A002801D00121A172002070BD70B5DF
:10E7C00004460D461646324629462046FDF750F9C6
:10E7D00070BD0000FFB581B00C461746002C02D179
:10E7E000072005B0F0BD20468107890F002901D11F
:10E7F000012100E00021002901D10720F1E719489B
:10E8000004601948078019490498086000204109EC
:10E810008900174A8918096801228240114000299D
:10E8200001D0012100E000210E4600BF002E02D0E1
:10E830000020FCF711FE0F49019810DF0546002D5E
:10E8400006D0002E02D00020FCF71AFE2846C8E7AA
:10E85000012009490870FEF7E5FF1620FFF7FAFDD1
:10E86000BFE70000A8200020AC200020A02000204E
:10E8700000E100E0BFE70100A4200020014800788B
:10E8800070470000A42000200146C878002801D06D
:10E89000072070470020FCE70246501A0002000AD9
:10E8A0007047000070B504460C480068002810D07E
:10E8B0000A4AA169606912689047054600BF2E4662
:10E8C000002E04D000BF3046FDF7EEF800BF00BFB9
:10E8D00002E06169A069884770BD000074200020D3
:10E8E000FEB5002001901148046811480768684689
:10E8F000FEF788FB0546FEF783FD0646002D05D092
:10E9000001AA21460098FEF7AFFB01260198FEF709
:10E91000B5FD002800D00126002E02D03846FEF7B3
:10E920001BFA002003490870FEBD0000642000208F
:10E93000602000207920002010B51420FCF7AAFDEB
:10E9400010BD000010B519490968002902D1174906
:10E9500008602AE0154A01681268126891420DD8D1
:10E960001249096809680268891A104A1268116018
:10E970000E490968C1610D49086016E002680B4C38
:10E980002368216803E00C68121B0B46C969002943
:10E9900002D00C689442F6D3002902D00C68A41A65
:10E9A0000C600260C161D86100BF10BD6020002012
:10E9B00030B50246164C2168084604E0904200D16A
:10E9C00003E00146C0690028F8D100BF002800D14B
:10E9D00030BD814211D10E4C2468E4690C4D2C608D
:10E9E0002C462468002C08D101240A4DAC60002478
:10E9F000094D2C600124094D2C700368C469CC6159
:10EA0000C869002802D00468E418046000BFDFE78A
:10EA100060200020001001406420002079200020A8
:10EA2000FFB583B005460E461746002001900090C2
:10EA30006846FDF7EFF902A800F034FB0446002C0D
:10EA400002D1042001900DE0012020706560FFF7E5
:10EA5000CFFBA060E6602761069860616846007A97
:10EA600000F03CFB68460078FDF7FEF901980028AD
:10EA700001D1FFF761FF019807B0F0BDFEB5054673
:10EA80000E460027002000906846FDF7C3F901A854
:10EA900000F008FB0446002C01D1042705E0267095
:10EAA00065606846007900F019FB68460078FDF75C
:10EAB000DBF9002F01D1FFF73FFF3846FEBD000014
:10EAC000F8B51F480068002839D00027FFF790FBF1
:10EAD00000901C4801680098FFF7DEFE06461848C3
:10EAE000056811E02868B04200D90FE02868361A9E
:10EAF0002868C7192C46ED69207C002804D0002026
:10EB000020742046FFF7CEFE002DEBD100BF0E484B
:10EB100000780E490978884209D10C480078401CD9
:10EB2000C0B20A490870022801D1002008700748C5
:10EB30000078800006490F50FFF7FEFE00BFF8BDC9
:10EB40006020002064200020702000207120002020
:10EB50006820002010B51120FCF79CFC10BD70B59A
:10EB600005460C46FF211D312846FFF7FCF8A18A17
:10EB7000A068465CA08A401CA0823046052109029C
:10EB80006918C86100BF70BD30B58FB004460D462E
:10EB90001C2108A8FCF7FDFA08A800780821884382
:10EBA000411808A80170007804218843011D08A8B5
:10EBB0000170002009900B900C900D900E90217820
:10EBC00068468172022101810020019000BF6846E1
:10EBD000007901090901491C684601710079F02199
:10EBE000884310306946087100BF00BF684640790D
:10EBF00001090901491C684641714079F0218843A7
:10EC000010306946487100BF684680790621884304
:10EC1000811C6846817180790821884301466846D5
:10EC2000817180791021884301466846817180791D
:10EC300041084900491C68468171142103A8FCF76A
:10EC4000A8FA02A8039001A80490012168468182D5
:10EC50000021C182142101836088231D03AA08A911
:10EC6000A2DF0FB030BD7FB504460D4600206946D7
:10EC7000087068460572A06801900020A07568467B
:10EC80006268216890477FBD30B504461088C01C7B
:10EC9000984201D90C2030BD0220158848551088B3
:10ECA000401C10800A20158848551088401C108090
:10ECB00015884C551088401C10800020EBE70000A0
:10ECC00070B505462878002804D0012835D00228E0
:10ECD00039D12CE01D491E4A12788818FCF7D8FF5C
:10ECE0001B480078401C1A49087008460078401EEE
:10ECF0001649085C0A2803D015480078142815DB4B
:10ED00001348027811491348FDF758FC0446082CB3
:10ED100009D000BF2646002E04D000BF3046FCF7C5
:10ED2000C3FE00BF00BF0020094908700CE000BF0F
:10ED30006868FCF7B9FE00BF06E000BF6868FCF732
:10ED4000B3FE00BF00E000BF00BF70BD2021002067
:10ED5000EE1F0020BC2000207CB504460E46207823
:10ED6000002841D0012802D0022851D12DE060684E
:10ED700001782948FCF7CDFE0546002D08D001207A
:10ED800069460870019568462449096888470BE080
:10ED90002148FEF7A8F9002806D00020694608702F
:10EDA00068461E49096888471B48FEF79CF91A49BE
:10EDB0008988884205D8012219491A48FEF7C2FD00
:10EDC00002E001201849087023E00220694608701B
:10EDD000E0680190012212491248FEF7B3FD68462F
:10EDE0000E490968884714E010491148FCF76CFE89
:10EDF000002805D101220D490A48FEF75FFE06E012
:10EE0000032069460870684604490968884700E09D
:10EE100000BF00BF7CBD00007826002084200020B9
:10EE2000892000207C2000208A20002088200020CB
:10EE30008826002030B58BB01822114905A8FCF7B0
:10EE40008FF900BF0F480190FF20013002900E485B
:10EE50000390FF200130049003230C4A01A905A868
:10EE6000FCF740FF044600BF00BF2546002D04D03C
:10EE700000BF2846FCF718FE00BF00BF0BB030BD36
:10EE800034F201003421002034220020C1EC0100C2
:10EE9000F0B585B005460C46012149022846FEF72B
:10EEA00078FF00282BD0FF2125312846FEF753FF9D
:10EEB000002824D0FF2125312846FEF754FF812168
:10EEC00089002846FEF75BFFA07E002803D10421BD
:10EED0002846FEF76AFF0220694608702846FEF7BA
:10EEE00030FF0390E17D68460172E06801900020E8
:10EEF000E0752076684662682168904739E0042111
:10EF00002846FEF746FF002833D0FF210931284666
:10EF1000FEF721FF00282CD021462846FFF7C4F930
:10EF2000E07D617E884224D1207E00280ED0E668F4
:10EF3000677E207EE0752069E060002020766076A4
:10EF4000324639462046FFF765FA12E0A07E0028D7
:10EF500003D104212846FEF728FF81218900284695
:10EF6000FEF70DFF0020E075617EE2682046FFF7A6
:10EF700051FAFF211D312846FEF7EDFE002814D07E
:10EF8000A08AA17D884204DA21462846FFF7E7FDE2
:10EF90000BE0FF211D312846FEF7E5FEA07D00288D
:10EFA00003D0A17D2046FFF75EFEFF2145312846B4
:10EFB000FEF7D1FE002815D0FF2145312846FEF787
:10EFC000D2FEA07E002803D000212846FEF7EDFEE9
:10EFD000E07D002806D00020E075617EE2682046D2
:10EFE000FFF718FA05B0F0BD014608784A7812021A
:10EFF0001043704702460A70FF20000210400012C2
:10F00000487002207047000038B505462048008847
:10F01000204988423BD020480078401C1E49087097
:10F020001E48007B097888420FDB1D49184800887C
:10F0300075DF0446002C07D018488069002803D0EB
:10F04000164881692046884721E00020124908704F
:10F050001248007C00280FD03B210D48008876DF45
:10F060000446002C07D00D488069002803D00B48C7
:10F0700081692046884700BF08484069002806D0BB
:10F0800000200090054841696846884700BF38BDA8
:10F090004A200020FFFF000048200020C425002057
:10F0A0004020002030B502460B484078401CC1B2D9
:10F0B00009488078884200D10021074800788842BA
:10F0C00001D1002030BD11700348446840781825F4
:10F0D000684323181846F5E7582000200149487076
:10F0E0007047000058200020FFB583B015460D9FE3
:10F0F0000C9E019700960222069B0499039800F04B
:10F1000019F8044600BF002C02D0204607B0F0BD1D
:10F1100000BF0197009610222946069B039800F035
:10F1200009F8044600BF002C01D02046EEE700BFDE
:10F130000020EBE7FFB587B006461D46109C002077
:10F1400006902088059000274DE0B90070684118AE
:10F150000A88684682804988C180002202A901A8E5
:10F1600065DF039000BF0398002802D003980BB01E
:10F17000F0BD00BF6846017A0998814232D10698F5
:10F18000002801D0002000E002200090208869467D
:10F19000097A4118009809181198814201DD0C2064
:10F1A000E5E7069800280AD12088401C20802188A5
:10F1B000089868542088401C2080012006902088F0
:10F1C000421902A901A865DF039000BF0398002837
:10F1D00001D00398CBE700BF21886846007A081861
:10F1E000208000BF7F1C3088B842AEDC0698002823
:10F1F0000ED021880598401C081A80B2049004980B
:10F20000FF2801DD0C20B2E70498C1B2059829540B
:10F210000020ACE705480079002803D10348007BB3
:10F22000002801D0012070470020FCE7302000209A
:10F23000000401000B0000000900000008000000AD
:10F240000A0000000000000000E0D70115161718A2
:10F2500011121314AC230020CC230020F82300202B
:10F260001100030071C801001200030071C8010001
:10F270001300030071C801001400030071C80100ED
:10F28000E02500209ECADC240EE5A9E093F3A3B597
:10F290000000406E000000506E72665F6472765F20
:10F2A0006770696F74655F696E6974006E72665F1E
:10F2B0006472765F6770696F74655F6F75745F699C
:10F2C0006E6974006E72665F6472765F6770696FF4
:10F2D00074655F696E5F696E69740000FFFFFFFF10
:10F2E000FFFFFFFFFFFFFFFFFFFFFFFF000000002A
:10F2F0000000000000E0D701030000001CF3010043
:10F30000E81F0020D4000000F8B60100F0F301006F
:10F31000BC200020440E000008B70100FFFF0100E0
:10F3200002000000000000000000000000000000DB
:10F3300000000000000000000000000000000000CD
:10F3400000000000000000000000000000000000BD
:10F3500000000000000000000000000000000000AD
:10F3600000000000CC24002000000000EC2400205D
:10F37000000000000000000000000000000000008D
:10F38000000000000000000000000000000000007D
:10F39000000000000000000000000000000000006D
:10F3A000000000000000000000000000000000005D
:10F3B00000200040000000000000000000000000ED
:10F3C000000000000000000000000000000000003D
:10F3D000000000000000000000000000000000002D
:10F3E0000000000000000000000000000024F40005
:040000050001B0C185
:00000001FF
