:020000040001F9
:10B0000028380020D5B00100EFB00100F1B00100F8
:10B010000000000000000000000000000000000030
:10B02000000000000000000000000000F3B001007C
:10B030000000000000000000F5B00100F7B00100C2
:10B040000DB60100F9B0010029B70100F9B0010007
:10B05000F9B001000000000041B20100F9B00100A8
:10B06000F9B00100F9B00100F9B00100F9B0010038
:10B07000F9B00100F9B00100F9B00100F9B0010028
:10B08000F9B0010061B60100F9B00100F9B00100AA
:10B0900089B60100F9B0010091B60100F9B00100D4
:10B0A000F9B00100F9B0010000000000000000004C
:10B0B0000000000000000000000000000000000090
:10B0C0000348854600F07EF80048004713FC010065
:10B0D000283800200321094802680A430260084812
:10B0E00002680A4302600748804707480047FEE7B6
:10B0F000FEE7FEE7FEE7FEE7FEE70000240500406E
:10B1000054050040C5B60100C1B0010030B50B4682
:10B11000014600202022012409E00D46D5409D4231
:10B1200005D31D469540491B2546954040191546B7
:10B13000521E002DF1DC30BD70B5002425460028DC
:10B1400001DA01244042002901DA01254942FFF7D2
:10B15000DDFFAC4200D04042002C00D0494270BD1F
:10B1600003460B439B0703D009E008C9121F08C020
:10B17000042AFAD203E00B780370401C491C521ECB
:10B18000F9D27047D2B201E00270401C491EFBD2D6
:10B1900070470022F6E710B513460A4604461946E2
:10B1A000FFF7F0FF204610BD30B5044600200346EF
:10B1B00000E05B1C934203D2E05CCD5C401BF8D006
:10B1C00030BD0000064C0125064E05E0E36807CCC3
:10B1D0002B430C3C98471034B442F7D3FFF774FF6D
:10B1E000685102008851020070B58C180578401C27
:10B1F0006B075B0F01D10378401C2A1106D102783E
:10B20000401C03E006780E70401C491C5B1EF9D1FF
:10B210002B0705D40023521E0DD40B70491CFAE7EE
:10B220000378401CCB1A921C03E01D780D70491C5A
:10B230005B1C521EF9D5A142D8D3002070BD00007E
:10B24000F0B58FB000200E900D90FF2001300C90D3
:10B250000126002416E00C9805F0FCF900280BD01C
:10B2600000BF924840683040002805D00C9805F097
:10B27000E9F90E9830430E9076000C98001D80B2CC
:10B280000C90641C042CE6D3FF207D3005F0E2F91D
:10B2900000280DD0FF207D3005F0D4F90121C90729
:10B2A0000E9808430E900DAA0121002005F0ACF97C
:10B2B0000E980007000F00282CD00126002427E05C
:10B2C0000E983040002821D000BF79485121090153
:10B2D0004018A10040581F2109020840000A0746F3
:10B2E00000BF7348512109014018A10040580321B3
:10B2F00009040840000C0B90204602F043F8054674
:10B30000002D02D038460B99A84700BF7600641C78
:10B31000042CD5D30E98C00FC007002876D000208B
:10B320000B900A90002505E00020C043A90009AA5F
:10B3300050506D1C002DF7D000BF00200B90002452
:10B340007AE05C48005D0890C02108988843074671
:10B3500058480057401C00286DD009A9384604F011
:10B3600085FD002867D0C02108980840801107900B
:10B37000384602F00FF8059002F004F8069006989F
:10B38000002802D10798032854D10798032815D123
:10B390000AA803970290039FF9080191039F790778
:10B3A000490F039101990298415C0123039A93404C
:10B3B0001943CAB20199425400BF00BF00BF00BF89
:10B3C000052109070846B9000722120282185158C0
:10B3D000032212041140090C05910DA9384604F00E
:10B3E00045FD04900498002802D00598022805D055
:10B3F000049800281DD1059803281AD1079803281E
:10B4000010D10598022802D1032001E04BE0022070
:10B4100003903846039905F0ABF80B98401CC0B276
:10B420000B9000BF0698002803D03846069A07996B
:10B43000904700BF00BF641C042C82D30B980028E7
:10B440002CD0012708AA0121002005F0DDF80025F5
:10B450000AE0A80008A90858A9000DAA5158884276
:10B4600001D0002702E06D1C002DF2D000BF002F9C
:10B4700002D000200B9010E000250CE0A80008A9E5
:10B480000858A9000DAA5050A8000AA90858A900F8
:10B4900009AA50506D1C002DF0D000BF0B98002859
:10B4A00000D04AE700BF0FB0F0BD000000630040CD
:10B4B000006000405C2E0020C206D20E01219140A7
:10B4C000014A11607047000080E200E0C206D20E1F
:10B4D00001219140014A11607047000080E100E0C5
:10B4E000C206D20E01219140014A1160704700004E
:10B4F00000E100E0C206D20E01219140014A116034
:10B500007047000000E100E0C206D20E0121914028
:10B51000014A11607047000000E200E010B5002809
:10B5200019DA1A4A03071B0F083B9B089B00D258E5
:10B530008307DC0EFF23A3409A438B071B0E84076F
:10B54000E40EA3401A43114B0407240F083CA4083F
:10B55000A4001A5118E00E4A03231B02D2188308D4
:10B560009B00D2588307DC0EFF23A3409A438B072E
:10B570001B0E8407E40EA3401A43054B0324240248
:10B580001B198408A4001A5110BD00001CED00E036
:10B5900000E100E010B5002819DA1A4A03071B0F72
:10B5A000083B9B089B00D2588307DC0EFF23A34077
:10B5B0009A438B071B0E8407E40EA3401A43114BDA
:10B5C0000407240F083CA408A4001A5118E00E4AEE
:10B5D00003231B02D21883089B00D2588307DC0E7A
:10B5E000FF23A3409A438B071B0E8407E40EA3405E
:10B5F0001A43054B032424021B198408A4001A5182
:10B6000010BD00001CED00E000E100E010B5FF20DF
:10B61000013004F036FC00280CD0FF20013004F08B
:10B620003BFC012004F03EFC01200C494870002046
:10B6300001F03EFFFF20053004F023FC00280BD072
:10B64000FF20053004F028FC022004F02BFC012030
:10B650000249887001F02CFF10BD0000082E002068
:10B6600010B500200749086000210648416081604C
:10B67000C1600020034940390860486008F0C8FEF6
:10B6800010BD00004011014010B508F0D1FD10BD03
:10B6900070B50B48006800280ED009480068804744
:10B6A000044600BF2546002D04D000BF284600F008
:10B6B00091FA00BF00BF01E003F0DCFD70BD0000A7
:10B6C0005821002010B503F0BDFE002805D0104819
:10B6D00010494860C8131049886103F097FE00289C
:10B6E00002D001200D49886003F0E2FE00280ED050
:10B6F0000B480068012807D00A480949086000BFC4
:10B70000074800680128FBD1C0200549486110BDE9
:10B71000DFFF07C000050040006C0040000600404D
:10B7200000EC06407593000010B50249024809F08C
:10B730006FF810BD642E00200020004030B4744625
:10B74000641E2578641CAB4204D3635D5B00E31880
:10B7500030BC18471D46F8E702E008C8121F08C1B0
:10B76000002AFAD170477047002001E001C1121F82
:10B77000002AFBD1704700000146202909DA012088
:10B780008840054A1040002801D001207047002061
:10B79000FCE70120FAE70000FC06FFBC00BFEFF366
:10B7A0001081084672B6704770B505460C46002DEC
:10B7B00001D0002C01D1002070BD2878217888426A
:10B7C00001D00020F8E70622611C681CFFF7ECFCA2
:10B7D000002801D10120EFE70020EDE7024600211B
:10B7E00005E0505C002801D001207047491C062963
:10B7F000F7D30020F9E7000010B50446002C0ED066
:10B8000008480068A0420AD806484068A04206D30B
:10B81000204603F084FE002801D0012010BD002046
:10B82000FCE7000084210020F7B582B004461646EC
:10B8300000253788002030802D20005D00280CD0A6
:10B840003A463146039801F06DF8054600BF002DD9
:10B8500002D0284605B0F0BD00BFA07800280BD06C
:10B860003A463146039800F0EDFB054600BF002D37
:10B8700001D02846EEE700BFE07800280DD0E1783F
:10B8800048B23B463246039902F098FC054600BF99
:10B89000002D01D02846DDE700BF606800280ED0EB
:10B8A0000020616808563B463246039908F0ADFE19
:10B8B000054600BF002D01D02846CBE700BF2089F8
:10B8C00000280FDD0197009606220221204608304D
:10B8D000039B09F00FF9054600BF002D01D0284653
:10B8E000B8E700BF208A00280FDD019700960722E5
:10B8F000032120461030039B09F0FCF8054600BFE9
:10B90000002D01D02846A5E700BF208B00280FDDC1
:10B91000019700961522142120461830039B09F048
:10B92000E9F8054600BF002D01D0284692E700BF88
:10B93000206A00280CD03B463246206A039901F069
:10B9400045FE054600BF002D01D0284682E700BF16
:10B95000606A00280CD03B463246606A039904F0C6
:10B9600088F9054600BF002D01D0284672E700BFC8
:10B970002C20005D00280CDD3B4632462046039912
:10B9800007F0C4FF054600BF002D01D0284661E73F
:10B9900000BF207800280CD03B4632462046039951
:10B9A00004F0A3F9054600BF002D01D0284651E759
:10B9B00000BF28464EE7000070B504461748FFF761
:10B9C0000DFF0546012C06D0022C0DD0032C14D0FF
:10B9D000042C20D118E012484078002803D0002D14
:10B9E00001D0012070BD00BF0D488078002803D031
:10B9F000002D01D00220F5E700BF0948C0780028DB
:10BA000001D00320EEE700BF05480079002801D0EF
:10BA10000420E7E700BF0020E4E700003920002011
:10BA20000825002010B504460521601CFFF784FBA3
:10BA3000C8B210BD0146C87804221040002801D1C8
:10BA4000072070470020FCE710B5012202210020EA
:10BA500001F0A0FA044600BF002C03D0072C01D04F
:10BA6000204610BD00BF07220221012001F092FAFA
:10BA7000044600BF002C03D0072C01D02046F0E77D
:10BA800000BF0A220021084601F084FA044600BFE4
:10BA9000002C03D0072C01D02046E2E700BF002095
:10BAA000DFE7000030B5A7B03C2118A8FFF771FB15
:10BAB000022118A80170002181700521C1700121A7
:10BAC00010A8018615491D913C2101A8FFF761FBD3
:10BAD00001216846818211490691202110A8FFF7B3
:10BAE00058FB012110A8C170FF202D301490B42004
:10BAF000159000200A4B10AA01A9009018A800F088
:10BB000003FC044600BF2546002D04D000BF284694
:10BB100000F060F800BF00BF27B030BD0A20002051
:10BB20002307020070B5032000F00CFD044600BF9F
:10BB30002546002D04D000BF284600F04BF800BF7A
:10BB400000BF70BD70B58CB004460D46164600208F
:10BB500005E00F21091A615C6A461154401C102847
:10BB6000F7D30D2104A8FFF714FB002005E02A5CA1
:10BB70000F210B1A04A9CA54401C0328F7D36846A6
:10BB80004DDF002005E00F210A1A08A9895C315415
:10BB9000401C0328F7D30CB070BD000000BF00BFED
:10BBA00000BF00BF00BFBFF34F8F00BF00BF00BF8B
:10BBB00006480749C86000BF00BF00BFBFF34F8FF2
:10BBC00000BF00BF00BF00BF00BFFDE70400FA05D3
:10BBD00000ED00E03EB50446002000900190029088
:10BBE00002946A4600210248FFF7D8FF3EBD0000DC
:10BBF0000140000070B504460D46204602F066FA8A
:10BC0000002805D02946204602F054FA002070BDD5
:10BC10000520FCE70346002901D10E207047002AC9
:10BC200003D0501E1040002801D00920F6E719600B
:10BC3000501E988000209860D86000BFEEE770B575
:10BC400004460D46204602F041FAA188884205D8F4
:10BC50002946204602F04DFA002070BD0420FCE782
:10BC6000F8B51AE01548047815480088604315496E
:10BC700009684518E0001449096840188688E00002
:10BC8000114909680F5831462846B8470B480078D3
:10BC900004F0E0F80949087000BF00BF0020002848
:10BCA0000BD100BF0549087808490978814201D1C4
:10BCB000012100E000210029D4D0F8BDF4200020AB
:10BCC000F6200020F0200020EC200020F5200020AD
:10BCD00010B503460C4600BF0D484068002801D14E
:10BCE000082010BD00BF002A01D10720F9E7002B72
:10BCF00001D10720F5E71868007C002801D0082052
:10BD0000EFE71968002008744C744A6100BFE8E747
:10BD1000FC200020F8B507460D4614461E46204676
:10BD20008107890F002901D1012100E000210029AC
:10BD300001D10720F8BD002C01D10720FAE707F058
:10BD400001F9114806600020104908704870084643
:10BD50008570446000200E4908600E4908700E4945
:10BD600008701420FFF7A8FB03211420FFF712FC32
:10BD70001420FFF7B5FB384607F0BAF807F0B2F821
:10BD8000064908600020D5E718210020FC2000208B
:10BD9000042100201421002015210020082100206A
:10BDA000F8B504460E461746254600BF10484068C1
:10BDB000002801D10820F8BD00BF002C01D10820C7
:10BDC000F9E7052E01D20720F5E76869002801D1BF
:10BDD0000820F0E7687C012801D1304600E000200F
:10BDE00000903B4631462846009A08F0C1FAE2E747
:10BDF000FC20002070B50446254600BF0A48406874
:10BE0000002801D1082070BD00BF002C02D0686955
:10BE1000002801D10820F6E70020287402212846D6
:10BE200008F0D4FAEFE70000FC200020F8B5044643
:10BE30000F48077821460F48FFF7DCFE0090002FDF
:10BE400013D000200A49087001220B490B4804F066
:10BE50000DFA054600BF2E46002E04D000BF304626
:10BE6000FFF7B8FE00BF00BF00BF0098F8BD00009C
:10BE700056210020043000205521002048210020B8
:10BE8000FFB589B004460D46174630480760002DBF
:10BE900002D107200DB0F0BDA88882B22C482968D5
:10BEA000FFF7B8FE064600BF002E01D03046F1E78E
:10BEB00000BFA88982B22748A968FFF7ABFE0646F3
:10BEC00000BF002E01D03046E4E700BF2022224907
:10BED00001A8FFF745F960690790207C002801D090
:10BEE000012000E000206946087608A90C98087037
:10BEF000607C002801D00E2000E0002069464876D2
:10BF0000E0680390A0680490206802906068019047
:10BF1000124A01A9124804F05DF9064600BF002E3E
:10BF200001D03046B6E700BF00200E4908702068F7
:10BF3000401C002808D00A4804F0D2F901220A491E
:10BF4000074804F093F9A5E70020A3E7502100205B
:10BF5000043000201430002048510200D94602006D
:10BF600048210020562100205521002070B50446AC
:10BF700021460C48FFF763FE0546002D10D10A4804
:10BF800004F098FA00280BD108490648FFF732FE62
:10BF9000002805D101220549034804F023FA05468B
:10BFA000284670BD14300020482100205421002074
:10BFB00070B5044600BFFFF7F1FB05460E48406828
:10BFC00000280ED101200C4948600C4800680C493B
:10BFD0000840094908600A480849086000202070A4
:10BFE00001E001202070002D03D100BF62B600BF28
:10BFF00000BF00BF70BD00002021002080E100E0F4
:10C00000FC06FFBC70B5044625460C484068002875
:10C0100012D0002D10D1FFF7C1FB0646074800687B
:10C0200007490860002005494860002E03D100BF81
:10C0300062B600BF00BF00BF00BF70BD202100205E
:10C0400000E100E0F8B505460C4617462088001DC3
:10C05000B84201D90C20F8BD684679DF064600BF1A
:10C06000002E01D03046F6E700BF03202188685437
:10C070002088401C20801920218868542088401C7A
:10C080002080208841196846008808F073FC2188C8
:10C09000401820800020DEE7704770B505460C464A
:10C0A0002068401C002805D0206804F081FA206830
:10C0B00004F032FA6068401C002803D00021606858
:10C0C00004F01DFA2868A169052212028218516243
:10C0D00000BF617D227D28680B461343052636028A
:10C0E0008619F36600BF62682168286804F0F4FAD4
:10C0F000207D012816D1A068401C002803D0002113
:10C10000A06804F0FCF9E068401C002805D0E06855
:10C1100004F04EFAE06804F0FFF9A268E1682868CC
:10C1200004F0B8FA70BD000030B58BB01448007848
:10C1300000F0C2FB0546284607F0F2F800281CD0A4
:10C1400001A800F015FB142201A906A8FFF708F8C2
:10C1500000240EE0620007A9885A0949097800F016
:10C16000B9FB002804D0620007A9885A03F08CFCB0
:10C17000641C0698A042EDD800BF0BB030BD000093
:10C180008620002010B5044663799A07920F217922
:10C19000208803F047FB10BD10B504462079002825
:10C1A00003D1204600F008F803E02046FFF7EAFF3D
:10C1B00000BF00BF10BD0000F0B589B004460025E7
:10C1C000208800F047FB0746208802F095FF0646CE
:10C1D000A0680890607A0790208800222249097898
:10C1E00000F08CFB002F01D109B0F0BD6079400751
:10C1F000C00F002811D00721304605F07FF9054611
:10C20000002D16D00821684601712188C180068161
:10C21000039501A801F0AAFC0BE0208813490978D6
:10C2200000F058FB002804D0304602F04DFF039088
:10C2300000BF03216846017421884182607940076C
:10C24000C10F68460175A0794007C10F04A841716C
:10C25000811D08A80078087004A86946097FC1718B
:10C2600001F084FC00BFBFE7CA200020CC200020E2
:10C27000F3B593B00D461F21129111911398002828
:10C2800018D01398FFF7D6FB044600BF002C02D04D
:10C29000204615B0F0BD00BF12AA09A91398FFF7F8
:10C2A000C3FA044600BF002C01D02046F1E700BFCE
:10C2B00009AE02E0002600201290002D17D028467B
:10C2C00007F068FF044600BF002C01D02046E0E7DD
:10C2D00000BF11AA01A92846FFF7A6FA044600BF2D
:10C2E000002C01D02046D4E700BF01AF02E00027B8
:10C2F0000020119010A88088C3B210A80089C1B294
:10C300003A46304672DFC4E7F8B504460F46154694
:10C310001E46002C01D0002D01D10E20F8BD0120B9
:10C32000574908700020574908702022294656486E
:10C33000FEF716FF5548066055490698086000202C
:10C34000C0435449088007215348FEF722FF3C218F
:10C350005248FEF71EFF207850490870A078887078
:10C36000E078C87060784870084662692169426167
:10C3700001610146E268A068CA6088600846E26917
:10C38000A169C2618161606A00281BD044484349A9
:10C39000486244498160606A00884049496A08806F
:10C3A000606A80883D49496A8880002005E0616AAA
:10C3B0008968095C3B4A1154401C3849496A89889C
:10C3C0008142F4D8A06A002824D0374937488160D8
:10C3D0003249886234493148806A8160A06A808825
:10C3E0002E49896A8880A06A00882C49896A088059
:10C3F000002005E0A16A8968095C2B4A1154401CA1
:10C400002649896A89888142F4D82C20015D234815
:10C4100020300173206A00280BD025481F4908628C
:10C42000206A4088096A4880206A00881B49096A96
:10C4300008806068002802D01849606848600020C1
:10C4400008E0C100091A1B4A89181B4A12688300B8
:10C45000D150401C0828F4DB002007E00101174AF6
:10C460008A18154989688300CA50401C0828F5DBE2
:10C4700039460A48FFF7FCFE009000984EE700009E
:10C4800034200020372000200825002048200020EC
:10C490004C200020442000203820002028250020A7
:10C4A00064250020702500209C2500209025002078
:10C4B00040200020FC2500205420002034260020AD
:10C4C00010B504462088102804D0112806D01B2857
:10C4D0000CD107E0204604F021FA08E0204604F0E1
:10C4E000B7FA04E0204604F045FB00E000BF00BFBF
:10C4F00010BD000070B50546022D02D0032D18D1E5
:10C5000000E000BF0C480078002811D000200A4944
:10C5100008700A48007800F015F80446002C07D08F
:10C5200007480068002803D0204605490968884765
:10C5300000E000BF00BF70BD352000203720002084
:10C540004C20002030B587B00546514800780028BF
:10C5500002D1082007B030BD4E48057001F098FEAA
:10C56000002804D001204C4908700020F2E7072180
:10C570004A48FEF70EFE4A484078002803D0454856
:10C58000007801280FD046488078002803D0414821
:10C590000078012807D042488078002812D03D4812
:10C5A000007802280ED13F480068002807D00120FB
:10C5B0003D49087008203B490968884702E000208F
:10C5C000394908702846FFF7F7F9324908703548AD
:10C5D0000068002817D008460078032803D00846D2
:10C5E000007804280FD12E48007800280BD02F485F
:10C5F0000078002807D101202D490870072029491B
:10C600000968884702E0002029490870182101A81C
:10C61000FEF7BFFD00216846017101731D480078D7
:10C620000300FFF78BF8051804090E131C0001A87E
:10C6300007F0EAF9044613E001A807F0F5F904460B
:10C640000EE001A807F006FA044609E001A807F089
:10C6500039FA044604E000201649087000E000BFE3
:10C6600000BF0C480078002806D001A873DF0446FC
:10C67000002C01D020466DE70A480068002804D04D
:10C680000C480078074909688847002062E70000E5
:10C6900034200020372000203520002038200020C2
:10C6A00008250020482000203F20002050200020A6
:10C6B000512000203620002070B505461C22294656
:10C6C0001448FEF74DFD0020134908702868002823
:10C6D0000BD0082211482968FEF742FD0F487ADF87
:10C6E0000446002C08D0204670BD0C487BDF044671
:10C6F000002C01D02046F7E70020C04308490880FD
:10C70000002008490870084A00210848FFF7E0FAAD
:10C71000EAE70000B42600207820002064200020F2
:10C720006E2000206C200020E549020038500200F5
:10C7300010B504462088102806D0112808D01228E9
:10C740000ED0502810D107E0204604F0C3F80CE0CA
:10C75000204604F02DF908E0204604F029FA04E010
:10C76000204604F0ABF800E000BF00BF10BD0000A1
:10C7700010B504460348027D011D204606F044FE24
:10C7800010BD0000F026002010B504460348C17D0E
:10C790002246001D06F022FE10BD0000F0260020FB
:10C7A00010B504460348017E2246001D06F016FE21
:10C7B00010BD0000F026002070B504462088102827
:10C7C00004D011281ED01A283FD11FE006F002FB2A
:10C7D000A08806F067F9002804D100BF0420FFF705
:10C7E000F9F90EE0A07D022801D1012000E000202F
:10C7F0000546A2882B4616490846123806F027FE41
:10C8000000BF22E0A08806F007FB1EE0207A0009A6
:10C81000012801DD012000E000200346A2880C4928
:10C82000491C0846133806F012FE207A0009022837
:10C8300001DD012000E000200346A2880449891C94
:10C840000846143806F003FE00BF00BF70BD0000AC
:10C850000627002070B5044600250C48017D2246BD
:10C86000001D06F0BBFD00280DD00848817D224642
:10C87000001D06F0B3FD0646002E01D0022000E0A8
:10C880000120054600BF284670BD0000F0260020AC
:10C8900010B500240BE0204608F0FCF8002804D175
:10C8A000204608F0EDF8204610BD601CC4B2182CDC
:10C8B000F1DB1820F8E7000010B50446204608F028
:10C8C000E9F8002802D00248005D10BD0020FCE716
:10C8D0000927002070B505460C46204608F0DAF816
:10C8E000002806D00448015D2A46153806F076FD7A
:10C8F00070BD0020FCE700000927002070B5054648
:10C900000C461646204608F0C5F8002806D0044814
:10C91000011933462A46153806F099FD70BD00000E
:10C9200009270020FEB505460C4617462088093029
:10C93000B84201D90C20FEBD684671DF064600BF33
:10C94000002E01D03046F6E700BF08202188685449
:10C950002088401C20801B20218868542088401C8F
:10C96000208021884819062200A90131FEF7F8FB32
:10C970002088801D208068460078002802D1218808
:10C98000685402E00120218868542088401C2080DF
:10C990000020D0E70A78002A05D0012A02D0022A16
:10C9A00002D102E001E000E000BF00BF70470000DC
:10C9B00070B586B004460E46264B0FCB01AD0FC5B1
:10C9C00000BF002C02D10E2006B070BD00BF00BF1A
:10C9D000002E01D10E20F7E700BF1F4804600020A1
:10C9E000C043A0803068206100202075A0732146DC
:10C9F00001A863DF054600BF002D01D02846E3E70C
:10CA000000BF21786846817501218182A21C05A999
:10CA10000120A0DF054600BF002D01D02846D3E746
:10CA200000BF3146204606F0DDFA054600BF002D66
:10CA300001D02846C8E700BF012003F08FFA054661
:10CA400000BF002D01D02846BEE700BF03F0CCFA9E
:10CA50000020B9E73C5002007C20002070B505465C
:10CA60000C4600BF002D00D170BD00BF00BF002CE0
:10CA700000D1F9E700BF2088102806D0112809D07E
:10CA8000502811D0512814D109E02146284603F03E
:10CA90003FFF0FE02146284603F0ACFF0AE02146A5
:10CAA000284604F047F805E02146284604F0AAF895
:10CAB00000E000BF00BF00BFD6E7000010B504468D
:10CAC0002046FFF779FE204605F092FB2046FFF74F
:10CAD0002FFE204600F09AF9204603F03DFE204646
:10CAE000FFF7EEFC21460548FFF7B8FF2146044852
:10CAF00000F058F8204600F089F910BDB021002060
:10CB00009421002070B586B004460E46244B0FCB0E
:10CB100001AD0FC500BF002C02D10E2006B070BDC4
:10CB200000BF00BF002E01D10E20F7E700BF00209C
:10CB3000C043A0823068A0610020A075214601A8F2
:10CB400063DF054600BF002D01D02846E6E700BFA1
:10CB500021786846817501218182A21C05A90120E6
:10CB6000A0DF054600BF002D01D02846D6E700BF54
:10CB70003146204606F0CCFA054600BF002D01D014
:10CB80002846CBE700BF3146204607F0BEFC0546ED
:10CB900000BF002D01D02846C0E700BF0020BDE740
:10CBA0003851020070B505460C46002D01D0002C0E
:10CBB00000D170BD2088102804D0112807D050283B
:10CBC0000FD109E02146284603F0A5FE0AE02146E0
:10CBD000284603F039FF05E02146284604F035F8E1
:10CBE00000E000BF00BF00BFE3E7000037B584B03E
:10CBF00004460D4600BF002C02D10E2007B030BD08
:10CC000000BFA08A0F49884202D0A07D002801D130
:10CC10000820F3E76846008B142801DD0720EDE7C4
:10CC200000200090019002900390A1896846018045
:10CC3000039506A80290012168468170A08A694682
:10CC4000A6DFDBE7FFFF000070B50446204607F0D3
:10CC50008BFE0546E807C00F70BD000070B586B0BA
:10CC60002A480068059000BF00234822284905A8EB
:10CC700007F028FA054600BF2E46002E04D000BF5C
:10CC80003046FEF7A7FF00BF00BF00BF6A46012184
:10CC9000002007F0F5F9044600BF2546002D04D01A
:10CCA00000BF2846FEF796FF00BF00BF032069467D
:10CCB0000880684607F0D0F9044600BF2546002DDD
:10CCC00004D000BF2846FEF785FF00BF00BF114813
:10CCD00007F0B4F9044600BF2546002D04D000BF7C
:10CCE0002846FEF777FF00BF00BF0B4807F044FA65
:10CCF000044600BF2546002D04D000BF2846FEF79D
:10CD000069FF00BF00BF06B070BD0000E84F020021
:10CD100040220020BDCA0100D7410200014601485F
:10CD2000405C70470850020030B502460C49885CF0
:10CD300000BF05242407214624150C19636801242B
:10CD400084409C4305252D024D19AC60012484408C
:10CD50001C4005252D024D19EC6000BF30BD0000C0
:10CD60000450020010B504460249085D012103F099
:10CD70002BFC10BD0450020010B504460249085DAA
:10CD8000002103F021FC10BD0450020010B5014643
:10CD90000A4B585C00BF05242407234600BF241516
:10CDA0001C196468C440E407E40F002C01D0012082
:10CDB00000E0002002460120504010BD0450020057
:10CDC00010B5002403E02046FFF7CCFF641C042CC0
:10CDD000F9D310BD10B5002403E02046FFF7CCFFC7
:10CDE000641C042CF9D310BD02460020C04300216E
:10CDF00006E0054B5B5C934201D1084602E0491C0A
:10CE00000429F6D300BF70470850020070B50546EC
:10CE10002888102802D0112832D118E01A4800685A
:10CE200000280ED100F0B4FC044600BF002C07D04F
:10CE300016480068002803D020461449096888472E
:10CE400000BF11480068401C0F49086019E00E48F7
:10CE50000068401E0C4908600846006800280ED192
:10CE6000FEF7F2FD044600BF002C07D0074800681B
:10CE7000002803D0204605490968884700BF00E024
:10CE800000BF00BF70BD0000302000202C2000201B
:10CE900010B5002000F058FA044600BF002C03D063
:10CEA000062C01D0204610BD00BF012000F04CFA36
:10CEB000044600BF002C03D0062C01D02046F2E728
:10CEC00000BF0020EFE70000F3B581B00746002562
:10CED00000243846FFF788FF0446042C42D202980B
:10CEE000002825D0012802D002283AD133E0600082
:10CEF000201822490D5C6000201840184078002856
:10CF00000ED01F4800680A22504301461D4A1E48A1
:10CF10000068FEF745FF0646002E01D1194807704C
:10CF2000600020181549401880781849085518E005
:10CF300015480068FEF75EFF1448005D6100611847
:10CF40000E4A89188978884204D160002018114659
:10CF50004018857805E06000201808494018457899
:10CF600000BF00BF002D07D009480068002803D08B
:10CF70002846074909688847FEBD0000DC240020D8
:10CF8000182000202420002014500200252000201A
:10CF90002020002030B503460020042B24D2012A93
:10CFA00007D1012903D11C460E34E4B200E000246D
:10CFB000224600290FD0012902D0022911D104E014
:10CFC0005C001C19094D2A550DE05C001C19074D29
:10CFD0006419627007E05C001C19044D6419A270AA
:10CFE00001E0072000BF00E0072030BDDC24002066
:10CFF00070B50446002506480078C007C00F002819
:10D0000003D0204600F006F80546284670BD000013
:10D010001C200020F8B5044600250026C5480078ED
:10D02000002804D00020C3490870FFF7C9FE230080
:10D03000FEF784FB180D1213406D9BC7D5DBF9F783
:10D04000F6F5F4F3F2F1F0EFEEEDECEBEAE9FFF7D1
:10D05000B7FEB94804706AE100BF0020FFF796FEF2
:10D0600000280BD00020FFF77DFE022C02D1E1202A
:10D07000C00001E07D204001064609E00020FFF7E6
:10D080007BFE022C01D1C82001E0FF209130064632
:10D09000A948047064213046FEF738F8A7490968AA
:10D0A0004843074600223946A5480068FEF778FE47
:10D0B00005463CE10020FFF769FE00280BD0002068
:10D0C000FFF750FE032C02D11920400101E07D2022
:10D0D0004001064609E00020FFF74EFE032C01D177
:10D0E000C82001E0FF209130064693480470642177
:10D0F0003046FEF70BF8914909684843074600227D
:10D1000039468F480068FEF74BFE05460FE10020C8
:10D11000FFF73CFE00280BD00020FFF723FE042C75
:10D1200002D17D20400101E07D20400106460AE059
:10D130000020FFF721FE042C02D1FF20913001E0F6
:10D14000FF20913006467C48047064213046FDF78C
:10D15000DDFF7A4909684843074600223946784886
:10D160000068FEF71DFE0546E1E00020FFF70EFE19
:10D1700000280AD00020FFF7F5FD052C01D1C820BA
:10D1800001E07D204001064609E00020FFF7F4FDA4
:10D19000052C01D1C82001E0FF20913006466648E9
:10D1A000047064213046FDF7B1FF644909684843C3
:10D1B00007460022394662480068FEF7F1FD054641
:10D1C000B5E00020FFF7B0FD5B4804705B4800222B
:10D1D00001685B480068FEF7E3FD0546A7E0002014
:10D1E000FFF7CAFD54480470A1E0012051490870BE
:10D1F000FFF79AFD51480022016851480068FEF788
:10D20000CFFD054693E091E08BE089E07DE074E09E
:10D210006BE065E03EE03CE03AE038E036E030E0EC
:10D220001FE010E0FFE7012042490870FFF77CFD96
:10D230004248006882008118002241480068FEF7D9
:10D24000AFFD054673E001203A490870FFF76CFD19
:10D250003A48002201683A480068FEF7A1FD0546F9
:10D2600065E0012033490870FFF75EFD3348006830
:10D2700082008118002232480068FEF791FD0546C1
:10D2800055E0FFF7A7FD2C48047050E000BF00BF39
:10D2900000BF00BF2B480068FEF7ACFD054611201B
:10D2A000061B002E18D0002D16D1012E10D9C82132
:10D2B000714308466421FDF729FF20490968484366
:10D2C0000746002239461F480068FEF769FD0546FB
:10D2D0000220FFF751FD02E00220FFF743FD26E0A8
:10D2E000FFF76EFD1448047021E0FFF769FD002090
:10D2F000FFF742FD1048047019E0FFF761FD0120BF
:10D30000FFF73AFD0C48047011E0FFF759FD0020CB
:10D31000FFF732FD0120FFF72FFD0748047006E0FC
:10D3200000BFFFF757FD0448047000E000BF00BFD6
:10D330002846F8BD152000201420002018200020C9
:10D340000C5002001050020070B504462046FFF752
:10D35000E5FC0546032103F0EBF8002070BD00005A
:10D3600001468879012808D10879012805D1488823
:10D37000034A904201D1012070470020FCE70000E1
:10D380000229000001468800014A10587047000039
:10D390001C2E002001460148405670473C2E0020BC
:10D3A0000146002907D00548884204D8044888422D
:10D3B00001D9012070470020FCE700007421002003
:10D3C0009421002070B505460E46002407E0E100D8
:10D3D000685802F0A4F8002800D170BD641CB44263
:10D3E000F5D30120F9E700000A49496C00290FD064
:10D3F0000849096CC900074A891801601146096C7F
:10D40000491C4907490F11641146496C491E516472
:10D4100070470000182F0020064902688A4203D096
:10D42000016808310160704702493839016000BF66
:10D43000F9E70000502F00200178022902D001787E
:10D4400003290BD106490A6C817D5118044A1164E5
:10D4500011464A6C817D511A014A5164704700009F
:10D46000182F0020F8B504460D46104E3046844271
:10D470000BD1FF210131284604F06EFE0646FF2045
:10D48000013086420FD126460DE0FF2C0BDC2146F1
:10D49000284604F050FE0746002F01D0204600E049
:10D4A0000248064600BF3046F8BD0000FFFF0000FE
:10D4B00070B50546002D01D1094C01E0084C083437
:10D4C0000AE0204602F034F80646002E00D104E0BF
:10D4D00028467168884700BFF3E700BF70BD0000B1
:10D4E000102E0020FEB51F480068002836D01D48C9
:10D4F0000068056805F0F6FC01901B4804682146A9
:10D50000019806F071FEC61C18480078002801D169
:10D5100005F0FAFCAE4201D2284600E0304604197C
:10D520002402240A204605F0D7FC05F0DBFC00901D
:10D530000199009806F058FEC71C2046019906F094
:10D5400053FE874209D905F0CDFC074605F0C4FC1F
:10D550002F2002F0ADFC06F0A5FF01E005F0F2FC83
:10D56000FEBD000004210020082100201C21002015
:10D5700001460888062808DB08881922D201904253
:10D5800005DD0888104A904201D00720704748887E
:10D59000062808DB48881922D201904205DD488818
:10D5A000094A904201D00720F0E70888064A9042D5
:10D5B00008D04888904205D008884A88904201DD0A
:10D5C0000720E3E70020E1E7FFFF0000FFB581B09F
:10D5D00006460D4614462088801D0499884202D9CB
:10D5E0000C2005B0F0BD3046FFF7C2FF074600BF74
:10D5F000002F01D03846F4E700BF05202188685489
:10D600002088401C20801220218868542088401CDB
:10D61000208022885119308807F0ACF92188401801
:10D62000208022885119708807F0A4F921884018B9
:10D6300020800020D5E710B5044600BF2046FEF745
:10D64000C9FA00BF10BD000030B587B01C21684684
:10D65000FDF79FFD002000900520C00301900F20E2
:10D66000000402900321684601730021C181017406
:10D6700009480590094806906846FFF71DF80446DA
:10D6800000BF2546002D04D000BF2846FEF7A2FAB1
:10D6900000BF00BF07B030BD8D08020037D60100C3
:10D6A00038B51F4801F0A0FE002829D11D48007898
:10D6B00000280AD01C484069002820D00020009093
:10D6C000194841696846884719E0184800780028D9
:10D6D00002D11548456801E01348856800222946B3
:10D6E00013480068FEF75CFB0446002C07D00E4888
:10D6F0008069002803D00C488169204688470AE0E9
:10D7000009484069002806D0012000900648416978
:10D710006846884700BF00200249087038BD0000F5
:10D720007020002078200020B42600206C200020EB
:10D73000385002003EB504462088FFF725F800283F
:10D740001AD020880F490978FFF7C4F8002805D1BE
:10D75000208800220C490978FFF7D0F82188684614
:10D760004180052101702088FFF71AF86946087189
:10D77000684600F0FBF904E020880122034900F02C
:10D7800007F93EBDCB200020CA2000200610000073
:10D7900010B5012200210846FFF7FCFB044600BF3C
:10D7A000002C03D0072C01D0204610BD00BF07225B
:10D7B00002210120FFF7EEFB044600BF002C03D03E
:10D7C000072C01D02046F0E700BF042202210020F0
:10D7D000FFF7E0FB044600BF002C03D0072C01D06C
:10D7E0002046E2E700BF0020DFE70000F7B50B4668
:10D7F000002A01D1501E01E01068C04301460020FC
:10D8000015E0009C245C614008240DE04D08CE0723
:10D81000F60F002E02D00026F64300E00026064F49
:10D820003E4075402946641E002CEFD1401C9842B2
:10D83000E7D3C843FEBD00002083B8ED10B56421D6
:10D840007D22D20008465043002800D116E000BFD8
:10D8500000BF00BF00BF00BF00BF00BF00BF00BFD0
:10D86000084A1268084B9A4200D101E000BF00BF8D
:10D870000246013A104600D0EAE700BF00BFFEF7BB
:10D88000EFF910BD702100200024F40070B50646A9
:10D890000D46002E01D0012070BD2879002804D04B
:10D8A000012809D0022811D10EE0284605F068F9B8
:10D8B0000446022028710BE0284600F023FC0446B1
:10D8C0000A2C00D1044C03E0034C01E00F2400BFFC
:10D8D00000BF2046E0E700001D1D000070B50546B2
:10D8E0000C46002C02D1002005490870054800684C
:10D8F000002804D021462846024A1268904770BD8D
:10D90000E4200020E820002070B5044620793D285E
:10D9100001D1054801E011200002054620880022BF
:10D92000294601F07FFF70BD3D10000001461448FC
:10D930000078144A127890421DD011480078401C9B
:10D940000F4A107010460078022801D10020107094
:10D950000B48007880000C4A105808600B4A086891
:10D9600012688018094A1060104600680002000A18
:10D970001060012070470020086000BFFAE7000037
:10D9800014210020152100200C2100200821002056
:10D99000FEB504460D461646084A07CA6B4607C33D
:10D9A00068464480858086710022054801782046BB
:10D9B000FEF7A4FF684600F0D9F8FEBDCC50020087
:10D9C000CA20002038B504462069002806D000206F
:10D9D0000090694620462269904700BF0120034914
:10D9E0008865034802F034FB38BD0000502B00204E
:10D9F000A9E2010010B50446A08928DF10BD00B5DA
:10DA000002781300FDF79AFE0734050811212A3128
:10DA1000340000220A702CE001220A7003898B81F5
:10DA20008388CB81C2688A6023E002220A7003895E
:10DA30008B818388CB81C2688A60027C062A01D1EF
:10DA4000012300E000230B7413E003220A70C38853
:10DA50008B810389CB81C2688A600AE004220A7044
:10DA6000C3888B810023CB8103E005220A7000E08C
:10DA700000BF00BF00BD000070B5054600240AE0ED
:10DA8000A00006490858002804D0A0000A461158F2
:10DA900028468847641C082CF2D370BD802E0020D5
:10DAA0003EB505460C46002C1BD0112C19D0002089
:10DAB0000090019002906846458001940D2C03D19E
:10DAC0000B206946087008E0862C03D10A206946BD
:10DAD000087002E0092069460870684600F056F8B0
:10DAE00000BF3EBD70B50546002405E0A000044A15
:10DAF000115828468847641C002CF7D070BD0000E0
:10DB00008020002070B50546002405E0A000044AEE
:10DB1000115828468847641C002CF7D070BD0000BF
:10DB20008C20002070B50546002405E0A000044AC2
:10DB3000115828468847641C022CF7D370BD00009A
:10DB40006450020070B50546002405E0A000054AB7
:10DB5000115828468847641C034800788442F5DB46
:10DB600070BD0000042B0020C620002070B50546C3
:10DB7000002405E0A000044A115828468847641C88
:10DB8000022CF7D370BD00009450020070B505461A
:10DB9000002405E0A000044A115828468847641C68
:10DBA000002CF7D070BD0000D8500200F0B503463D
:10DBB000002420E0134E306806689E4203D90668B0
:10DBC000F61A06601BE006689B1B066834190026DF
:10DBD00006600C4E35680B4FC6693E60C668002E65
:10DBE00008D00E193602360A4660C6688660166886
:10DBF000C661156000BF034800680028DAD100BF85
:10DC0000F0BD0000042100201FB504466068002814
:10DC100001D1012000E00020039020780300FDF7EF
:10DC20008DFD068A04053456838A00BFA08900F062
:10DC300089FA002804D1E08905F0BEF8002823D035
:10DC4000A08900F079FA69464880E08905F0AEF8CD
:10DC5000694608712078012807D16068002800D142
:10DC600000E003206946087007E06068002801D1E1
:10DC7000012000E004206946087060680390A068F5
:10DC80000290684603F000FD56E0A08900F05AFAC1
:10DC9000002804D1E08905F08FF8002816D0A0896B
:10DCA00000F04AFA69464880E08905F07FF8694645
:10DCB00008716068002801D1022000E00520694653
:10DCC0000870A0680290684603F0DEFC34E0A0898A
:10DCD00000F038FA002826D0E089002823D1A08956
:10DCE00000F02AFA69464880E08905F05FF80146AD
:10DCF00068460171FF2101716068002806D1062085
:10DD000069460870488803F0E1FE02E00720694692
:10DD1000087000200E4908700E49087003F024FEB8
:10DD2000684603F0B1FC07E00820694608706846C1
:10DD300003F0AAFC00E000BF00BF054800780028FF
:10DD400004D000200249087003F00EFE1FBD000041
:10DD5000A1200020A220002010B588B00446022097
:10DD600000F018FA002802D1022008B010BD0C48BB
:10DD7000844201D10420F8E70521684601710121A0
:10DD8000017201A8C4800022114602F083FF00281E
:10DD900003D004F04BFE0020E7E70820E5E7000091
:10DDA000FFFF000000B587B0022000F0F3F9002863
:10DDB00002D1022007B000BD06206946087000228B
:10DDC0001146684602F066FF00280AD0064800782F
:10DDD000002802D001200449087304F027FE002027
:10DDE000E8E70820E6E70000802F002010B58CB09F
:10DDF000142107A8FDF7CDF9022000F0CBF9002887
:10DE000005D007A8FFF738FE00200CB010BD012098
:10DE100000F0C0F9002801D00020F6E7012000F052
:10DE2000C5F900F0D1FA01206946087003F03CF80A
:10DE300004462300FDF782FC0C0715081628230A68
:10DE400024281A1F1B2800BF0B20DEE7022000F049
:10DE5000ADF9012000F084F907A8FFF70DFE0020BE
:10DE6000D3E700BF0020694608710EE000BF032021
:10DE70006946087109E002206946087105E000BFA3
:10DE800001206946087100E000BF00BF0022114672
:10DE9000684602F0FFFE04F0C9FD0020B5E700006F
:10DEA00038B50446002C01D1052038BD694620460E
:10DEB00004F084FE00281DD06846008800010F4948
:10DEC00040188089002813DDA07A002810D0684609
:10DED0000088000140188089401E81B26846008891
:10DEE0000001064A801881810020A072002502E00E
:10DEF000062500E00A252846D7E70000602F00200D
:10DF00007FB514461D462B46224601A9684604F0FB
:10DF1000EFFD04B070BD37B50C4615462B462246C2
:10DF20006946002004F0E4FD3EBD37B50C461546B9
:10DF30002B4622460021684604F0DAFD3EBD02462B
:10DF4000002A01D0002901D105207047106808601F
:10DF50000020FAE738B504460D46002C01D0002D0C
:10DF600001D1052038BD6946204604F027FE00286F
:10DF700016D061686846008800010A4A80188089C6
:10DF8000401C82B2684600880001064BC01882819E
:10DF9000296060680C3068600120A0720020E1E711
:10DFA0000A20DFE7602F002070B504460D46002CE4
:10DFB00001D1052070BD032300222946204606F02A
:10DFC000E7FEF7E770B504460D4602230022294616
:10DFD000204606F0DDFE70BD70B505460E461446BF
:10DFE000002C01D1052070BD02232246314628466F
:10DFF00006F0CEFEF7E700000146094A1278082A2B
:10E0000001D10C200AE0064A12789200054B995083
:10E01000034A1278521C024B1A700020704700000D
:10E020002D210020802E0020F8B504460D46022048
:10E0300000F0B0F8002801D10220F8BD002C01D179
:10E040000520FAE76946284606F09AFF0646002EA4
:10E0500003D168460088208065803046EDE70000E7
:10E0600070B50446022000F095F8002801D1022086
:10E0700070BD002C01D10520FAE72088022801DDBF
:10E080000420F5E720880001094946187189608855
:10E09000C01C081A08D42188608806F063FF00209D
:10E0A00020806080002500E004252846E0E700008D
:10E0B000602F002070B504460D462A4600212046F8
:10E0C00000F00EF8A068401CA06070BD01468A6890
:10E0D000C868801A704701468A68C868801A704705
:10E0E00010B583685B18848823400468E35C137070
:10E0F00010BDC26883881A4003689954C268521CD4
:10E10000C26070473EB504460A4B6A460021A01D16
:10E1100004F0EEFC0546002D06D1064A91880198D0
:10E1200004F0BEFD054603E00248002101604160A5
:10E1300028463EBD3C210020014603208003081AEA
:10E1400080B27047014603208003814204DB03480C
:10E15000814201DC012070470020FCE7FEFF000047
:10E16000024909788143014A117070472C2100202F
:10E1700010B504462078182802D1FEF789FB2070DC
:10E1800010BD10B504462078182802D1FEF780FB98
:10E19000207010BD0146044800780840002801D0D6
:10E1A000012070470020FCE72C210020024909785B
:10E1B0000143014A117070472C21002030B50446FC
:10E1C0001088C01C984201D90C2030BD022015884F
:10E1D00048551088401C108001201588485510882B
:10E1E000401C108015884C551088401C1080002061
:10E1F000EBE70000F8B506460C4615460027002060
:10E200000090862C03D0112C01D0002C37D1862C05
:10E2100003D10020009001270AE0112C03D1012036
:10E220000090002704E0002C02D10020009000277D
:10E23000002D18D03A46124801783046FEF75EFBB2
:10E24000104801783046009AFEF758FB00220E482D
:10E2500001783046FEF752FB00220C480178304628
:10E26000FEF74CFB0BE03A46074801783046FEF7D4
:10E2700045FB064801783046009AFEF73FFBF8BDA3
:10E28000E1200020E0200020DD200020DC20002014
:10E2900008B5684600F004F90098002801D0012074
:10E2A00008BD0020FCE7000070B505460C46002CB8
:10E2B00008D1054909688888132176DF01200249C1
:10E2C0000968087570BD00007C200020F8B505467F
:10E2D0000C4616461F461F480078C007C00F00288E
:10E2E00001D10120F8BD2846FFF75AF8002801D1D6
:10E2F0000220F7E7002C01D10320F3E7A005800DF1
:10E30000002801D00620EDE72868A04204D8B0021A
:10E3100000196968884201D90520E3E7002E01D180
:10E320000420DFE7684604F0C3FA002801D1072083
:10E33000D8E70098476000980560022000990872AD
:10E34000A001000C009988810098068204F07CFBF3
:10E350000020C7E74621002070B505460C46204640
:10E3600004F0D8FA70BD000070B504460D460E48A2
:10E370000068400840000C490860002D06D108469E
:10E380000068022188430849086005E006480068E3
:10E3900002210843044908606068002803D0294628
:10E3A00020466268904770BD1020002005484169F2
:10E3B000481C002801D0084670470120000740692A
:10E3C0008002F9E700100010FEB52D482D49401AD3
:10E3D00004092B48401A0509FFF7E8FF02902A4874
:10E3E0000078C007C00F002801D00020FEBD00202B
:10E3F0000AE00201234BD1180A68002A03D04A68B8
:10E40000002A00D06D1E401CA042F2D300202CE058
:10E4100002011C4BD11800220192C2B200920022CC
:10E4200013E01601174FF3191E68002E03D05E6823
:10E43000002E00D008E05F7B019EB74203DD5E7BCB
:10E440000196D6B2009600BF521CA242E9D3009AB0
:10E4500012010C4BD118029A4A600A7B9302029A6D
:10E46000D21A0A600A680292401CA842D0D3064819
:10E47000007801210843044908700020B6E7000035
:10E480009421002074210020462100200348406E82
:10E49000042801D1012070470020FCE79C2F0020B8
:10E4A0000146002901D1032070470248406E0860F0
:10E4B0000020F9E79C2F0020F8B505460C461646CB
:10E4C0001F4623480078C007C00F002801D1012053
:10E4D000F8BD2846FEF764FF002801D10220F7E7C7
:10E4E000002E01D0002C01D10320F1E7B007800FEE
:10E4F000002803D1A007800F002801D00620E7E7FD
:10E500002868A04204D8B90009196868884201D275
:10E510000520DDE7002F01D10420D9E7684604F08B
:10E52000C7F9002801D10720D2E700990698486072
:10E53000009805600120009908720098C660009854
:10E5400004610098878204F07FFA0020C0E7000091
:10E550004621002070B504461848006E1821484333
:10E5600016494518164800780221084000280DD0A9
:10E57000022C02D0032C08D103E0284602F09EFAB8
:10E5800003E0284602F084FA00BF14E00C4800784B
:10E590000421084000280ED0094800788843084923
:10E5A00008700648406E002805D008460078022111
:10E5B00008430349087004F001FA70BD9C2F002045
:10E5C000462100203EB500BF6846007801090901D8
:10E5D000491C009168460078F02188431030009073
:10E5E00000BF0B2214A168467CDF044600BF25460D
:10E5F000002D04D000BF2846FDF7ECFA00BF00BF95
:10E60000002001900290502168468180A021C180A5
:10E6100000210181FF219131418101A87ADF044667
:10E6200000BF2546002D04D000BF2846FDF7D2FAD2
:10E6300000BF00BF3EBD00004B5F446F63746F724C
:10E640005F36390070B50546002D01D0012070BD40
:10E650001848007B002803D000201649087301E009
:10E6600000F0D8F8134800780300FDF767F8081D9C
:10E6700005090D111D15191D00F03CF8044615E0A3
:10E6800000F0B4F8044611E000F090F804460DE004
:10E6900000F044F8044609E000F020F9044605E0E3
:10E6A00000F02CF9044601E00F2400BF00BF204613
:10E6B000CDE70000802F00200C480089401C0B494A
:10E6C000088100204880087300BF0CE00101084A5F
:10E6D000515C002901D1012200E0002203490A31E6
:10E6E0000A54411C88B20228F0DB7047802F0020BA
:10E6F000602F002010B5074800F032F8002806D13E
:10E700000449891E087048804860034810BD00F025
:10E710006DF8FBE7822F00201D1D000070B50D482D
:10E72000458828010C494018808900280DD128010E
:10E730000A4680180023012241680848FFF7C6FDF9
:10E74000044604200349087002E000F08FF80446F4
:10E75000204670BD802F0020602F002084210020E3
:10E7600010B501460022002016E00E4B1B5C002B6A
:10E7700010D000240B4B1C5403010B4C1B199B891C
:10E78000002B07D103011B199B7B012B02D10880B1
:10E79000012203E0431C98B20228E6DB00BF1046CA
:10E7A00010BD00008A2F0020602F0020F8B50C4813
:10E7B00044680C4800680B498988890045186088BE
:10E7C000C01C86B20320064908700020009008464D
:10E7D0003346294642680448FFF76EFEF8BD000044
:10E7E000802F0020342100208421002010B508490A
:10E7F0004888091D04F022FA002803D0FFF7D6FF4D
:10E80000044602E0FFF78AFF0446204610BD0000E0
:10E81000802F002010B5144800780300FCF78EFF0D
:10E82000080520200B1117181C20FFF745FF0120B9
:10E830000D49087015E000F06DF802200A490870D3
:10E840000FE000F029F806200749087009E000BF32
:10E8500007200549087004E001200349087000E022
:10E8600000BF00BF10BD0000802F002010B50520A4
:10E8700006490870022006498880084600230122C4
:10E8800001680448FFF722FD10BD0000802F002022
:10E8900034210020842100200D4908680D49498851
:10E8A00009010D4A89184968094A116009494988CE
:10E8B0000901094A8918486005498988054A52882A
:10E8C0001201054BD21811810221014A9180704733
:10E8D00034210020802F0020602F002010B506205A
:10E8E0000449087049880901034A8918486802F0F8
:10E8F000B9FA10BD802F0020602F002010B507202E
:10E90000034908700020486002F0BCFA10BD000006
:10E91000802F0020054A50684288D21C91B2044AD8
:10E9200092885218024B9A8070470000802F002076
:10E93000342100203EB504462088502821D052289A
:10E9400002D0542826D103E0A08801F09DF821E0F0
:10E95000062168460170A08800F0CEFB014668469B
:10E960004180A18881806946488800F011F9A0881B
:10E9700000220C490978FDF7C1FF6846FFF7B2F89D
:10E9800008E0A01DFEF7ECFC002802D0A08801F0F2
:10E99000CBF800BF00BFFDF7C7FB05F0F5FF04F0A3
:10E9A000F5FE3EBD872000203EB5044660886946DE
:10E9B00048802078002804D001280FD0022829D1CF
:10E9C00014E00020694608706846FFF78BF86088FD
:10E9D00000F0ACFA054601F057F81BE0012168464B
:10E9E0000170A1888180FFF77DF813E0207900286D
:10E9F0000FD0608800F09AFA05460748854207D094
:10EA00000122064801782846FDF778FF04F0BEFE93
:10EA100000BF00BF00BF3EBDFFFF000087200020F9
:10EA200010B50446207801280ED1608801F02CF83A
:10EA3000608800F09BF9002805D060880122044915
:10EA40000978FDF75BFF00E000BF00BF10BD0000CC
:10EA50008720002010B500F073FCFDF719FF124964
:10EA60000870FDF715FF11490870FDF711FF1049F7
:10EA70000870FDF70DFF0F4908700B480078182843
:10EA80000BD00A480078182807D0094800781828C1
:10EA900003D008460078182801D1032010BD0120BA
:10EAA000054908700020F9E7852000208620002015
:10EAB00087200020882000208420002010B586B008
:10EAC00000F07EF801A8FDF753FE002411E062007B
:10EAD00002A9885A00F010FB0949884207D1620058
:10EAE00002A9885A012207490978FDF707FF601C2F
:10EAF00084B20198A042EAD804F048FE06B010BDE6
:10EB0000FFFF00008720002010B50446207807286A
:10EB100003D1608801F008F800E000BF00BF10BD1D
:10EB200010B504460B4801782046FDF7D3FE0028B7
:10EB30000DD0002109E00C204843074A8018408886
:10EB4000A04201D1C8B210BD491C0829F3D3FF204F
:10EB5000F9E70000972000202427002010B50024AA
:10EB60000DE00C216143084A891848880749097853
:10EB7000FDF7B0FE002801D1E0B210BD641C082CE6
:10EB8000EFD3FF20F9E70000242700209720002082
:10EB90001CB50446044903C901910090002269464E
:10EBA000204602F0DFFB1CBD5C50020010B500F0F7
:10EBB000CDFB012001490870002010BD90200020ED
:10EBC00010B5044802F09EFA0349088004F016FECE
:10EBD00010BD0000FFFF000092200020F1B584B0BE
:10EBE000049800F089FA05460026002703200190CA
:10EBF000012000901F4885420DD002AA0821284616
:10EC000002F076FB0446002C05D10398861D878808
:10EC10000168019100BF00BF3A463146019B04984C
:10EC2000A9DF0446042C01D1112419E0082C01D1DC
:10EC3000002415E00B2C13D1002000900221019834
:10EC40000840002802D00120019009E0002E01D1E7
:10EC5000002F04D0002600270320019000E00324A9
:10EC60000B2CD9D00098002800D10B24204605B0E9
:10EC7000F0BD0000FFFF0000F1B584B0049800F083
:10EC80003BFA07462248874202D1224805B0F0BD30
:10EC9000012001900020009000BF0020009001980A
:10ECA000411C89B2024602AB01910821384602F0AC
:10ECB00065FB0446002C22D1039D032028602A1DF9
:10ECC000A91D2B680498AADF0446002C05D1082151
:10ECD000384602F013FC044610E00C2C02D101204F
:10ECE000009002E0052C00D100240821384602F0F3
:10ECF000E9FB0646002E00D0032400BF02E0072CEB
:10ED000000D10C2400980028C7D100BF2046BDE7E1
:10ED1000FFFF0000023000007FB504462078012884
:10ED200017D12079012814D1608802AA012102F0AC
:10ED3000DFFA0546002D0BD102216846017061887B
:10ED400041800398017868460171FEF7DBFE00BF41
:10ED500000BF044800880449884201D004F04EFDF9
:10ED60007FBD000092200020FFFF00007CB504461C
:10ED7000204600F0C1F906466A460121304602F0FD
:10ED8000B7FA0546002D01D000207CBD019800781F
:10ED9000FBE7000070B505460A4E00BF094A0A4865
:10EDA00001882846A7DF04460848844204D1064863
:10EDB0000088401C0449088004488442EED0204664
:10EDC00070BD0000FFFF0000942000200330000011
:10EDD00001468888044A904204D00888002801D05F
:10EDE000012070470020FCE7FFFF00003EB504460D
:10EDF0000D462078022801D000203EBD0322611C70
:10EE000002A8FCF7ADF90322211D6846FCF7A8F91A
:10EE100001AA69462846FCF795FE032201A902A82B
:10EE2000FCF7C2F9002801D10120E6E70020E4E761
:10EE300070B506460C463046FFF772FE0546FF2DBC
:10EE40000AD00C206843054A8018011D072220467D
:10EE5000FCF786F9002070BD0520FCE72427002080
:10EE600070B58EB004462088102801D00EB070BD59
:10EE70002C22211D03A8FCF773F92B4D6846007C5A
:10EE8000032837D002F068FC6846007C002804D0D4
:10EE9000012803D002282AD115E000BF0AE001981A
:10EEA0000146113104A8FCF77FFC002802D0684617
:10EEB000058906E06A4602A9072002F01FFC002827
:10EEC000EDD100BF14E009E00198411C04A8FFF750
:10EED0008DFF002802D06846058906E06A4602A92F
:10EEE000072002F00BFC0028EED100BF00E000BFBD
:10EEF00000BF00BF6946888904A900F059FF064693
:10EF0000094885420DD069468889294600F096F85F
:10EF100068468189C1800121017101A8FEF702FEC6
:10EF200000BF00BFA2E70000FFFF00000246002173
:10EF30000BE00C204843074B185A904204D10C2098
:10EF40004843C01840887047491C0829F1D302483B
:10EF5000F9E7000024270020FFFF000010B500F0B3
:10EF600001FAFDF795FC0A49087008460078182850
:10EF700001D1032010BD074871DF0446002C01D0E9
:10EF80000320F7E70120044908700020F2E70000A1
:10EF9000972000209920002096200020F8B50446F4
:10EFA0000D46601C00F0AEFA002800D1F8BD10221A
:10EFB000691C601CFCF7F8F8002801D1012000E072
:10EFC000002007462946113120461130FCF7ECFBA2
:10EFD0000646002F01D1002E01D00120E6E70020D7
:10EFE000E4E702461088002801D001207047002184
:10EFF00006E0901C405C002801D00120F6E7491C87
:10F000000829F6D30020F1E770B505460C462846DE
:10F01000FFF7E7FF002800D170BD288821888842CB
:10F0200001D00020F8E70822A11CA81CFCF7BCF8BE
:10F03000002801D10120EFE70020EDE770B504467C
:10F040000D462946204602F0A5FD70BD30B587B0BB
:10F0500004462078002802D12079072801D007B083
:10F0600030BD608804AA072102F042F90546002D50
:10F0700000D0F4E702F070FB1BE060886946098B62
:10F08000884200D115E003990598FFF787FF002813
:10F090000ED06088FFF74AFF694648800021684625
:10F0A000017061888180018BC180FEF73BFD07E024
:10F0B00000BF02AA06A9072002F020FB0028DCD12D
:10F0C00000BF00BFCBE7000070B506463046FFF733
:10F0D0002DFF0446304602F016F9054605488442E5
:10F0E00005D0002D03D10146204602F053FD2846ED
:10F0F00070BD0000FFFF000070B505462846FFF711
:10F100000FFD0446FF2C04D00C2060430249085A2E
:10F1100070BD0248FCE7000024270020FFFF00002C
:10F120003EB5044602F018FB12E001980146463154
:10F130002046FFF769FF002807D1019801462A31D0
:10F140002046FFF761FF002802D0684600893EBDD7
:10F150006A4602A9072002F0D1FA0028E5D1014849
:10F16000F5E70000FFFF0000F8B506460C460F204B
:10F170000090002E04D00120FEF7F2FF0120F8BD20
:10F180002079002806D001280AD002282DD0032893
:10F190005AD138E001F076FE00900120207154E051
:10F1A0000027002513E028012D49085C02280CD116
:10F1B00029012B4A8918486801F054FE009000206C
:10F1C0002901274A5054012703E0681C85B2022D0B
:10F1D000E9DB00BF002F07D10220FEF7E7FF012087
:10F1E000FEF7BEFF1F48CAE72FE01F480023012299
:10F1F00001681E48FFF76AF8009002201A498880CB
:10F200000020207121E01849086801F02BFE0090D1
:10F210001748458814480768280111494018406874
:10F220001149086028010E49401847600E4880883F
:10F2300029010B4A8918088102200B498880002087
:10F2400029015054207100E000BF00BF0098002841
:10F2500004D00120FEF784FF0E2090E700208EE707
:10F26000602F00201D1D000034210020842100207B
:10F27000802F0020F8B52C480078002800D1F8BD78
:10F2800000252A480068002801D1012000E0002064
:10F29000064600BF002D1ED125480078002800D06A
:10F2A000EDE7684652DF0446052C01D1012511E047
:10F2B000002C04D000BF2046FCF78CFC0AE000982C
:10F2C00000F05EFF1B480068002803D01949009831
:10F2D0000968884700BF002E1DD115480078002816
:10F2E00000D0CCE7144800880090694613480068B5
:10F2F00061DF0446052C01D101260BE0002C04D06F
:10F3000000BF2046FCF766FC04E00C480068074993
:10F310000968884700BF002D02D0002E00D000E011
:10F32000B8E700BF00BFAAE75C21002068210020E9
:10F330005D2100206C21002064210020602100203C
:10F3400000200149087070478420002000200349F4
:10F350000870401E0249088070470000902000207D
:10F3600092200020182007490870002007E00022A2
:10F37000D2430C214143044BC9184A80401C082841
:10F38000F5D37047972000202427002010B50024D3
:10F3900006E014216143044A881805F0CDFC641C82
:10F3A000082CF6D310BD0000A427002010B5044699
:10F3B00040212046FBF7EDFE10BD00000020C043B9
:10F3C0000549088000200549086018200449087094
:10F3D0000449087070470000C4200020BC200020B1
:10F3E000C7200020C820002001464888064A12880D
:10F3F000904206DB4888044A5288904201DC012092
:10F4000070470020FCE70000642000200C48008CBE
:10F41000C0B2012812D10A48808C0007000F0028D2
:10F420000CD10748806AF0210840402806D10448E2
:10F43000C06A0840002801D1012070470020FCE785
:10F44000C00F00F01948008CC0B201282CD1174819
:10F45000808C0007000F002826D11448806AF02114
:10F460000840002806D11148C06A0840002801D190
:10F47000012070470D48806AF0210840102806D10D
:10F480000A48C06A0840002801D10120F1E7074876
:10F49000806AF0210840302806D10448C06A08403C
:10F4A000002801D10120E4E70020E2E7C00F00F0CE
:10F4B0001348008CC0B201281FD11148808C00076E
:10F4C000000F002819D10E48806AF0210840A028BA
:10F4D00006D10B48C06A0840002801D101207047BE
:10F4E0000748806AF0210840D02806D10448C06A45
:10F4F0000840002801D10120F1E70020EFE70000DB
:10F50000C00F00F00246002105E0505C002801D049
:10F5100001207047491C1029F7D30020F9E7014664
:10F520008807800F002801D1012070470020FCE7E8
:10F5300001460868002801D002680A607047000090
:10F54000FFB581B007460D461E46002D06D12B485B
:10F550000078002802D1052005B0F0BD002D06D0AE
:10F5600000213846039A04F051FC044605E0244982
:10F570003846039A04F04AFC0446002221463846E5
:10F58000FEF738FE002E03D021463846FEF788FAF3
:10F59000112C0ED006DC002C26D0082C27D00D2CE8
:10F5A00026D122E0862C12D01648201800281FD120
:10F5B0001CE02A46144801783846FDF79FF91348A5
:10F5C00001783846039AFDF799F9002412E02A469B
:10F5D0000D4801783846FDF791F90C480178384616
:10F5E000039AFDF78BF905E000BF00BF00BF01E003
:10F5F000032400BF00BF2046AEE70000D620002055
:10F60000D1200020FECFFFFFDF200020DE200020E1
:10F61000F7B582B007460E46002E03D138467EDF8E
:10F6200005B0F0BD3078C007C00F002801D0012020
:10F6300000E0022001903846FFF75EFD05461949BB
:10F640008D4209D001A82B46009031463846049AD5
:10F6500000F02AF804461BE03078C007C00F0028ED
:10F6600005D03146384600F09BF8044610E031469C
:10F6700038467EDF044600200090002C01D1012096
:10F6800000E00020024601232946384603F0ECFF43
:10F69000002C04D168460179384604F02DF8204644
:10F6A000BEE70000FFFF0000FFB587B00F461E4613
:10F6B00000250020029005AA0721304601F018FE1F
:10F6C0000446002C0ED106980546183506983430AD
:10F6D000007CC007C00F02900298002802D0069854
:10F6E000054634350998002816D1002C14D1002D78
:10F6F00012D00298002805D128461230FFF771FC7D
:10F70000002809D02A4629461231079885DF044689
:10F710000021109801702CE0002C01D0052C28D17C
:10F7200000243878C007C00F00280DD003AB012299
:10F730000721304601F022FE0446002C04D10721A7
:10F74000304601F063FF0446002C03D13946079888
:10F750007EDF0446002C0CD00721304601F0B2FEBB
:10F7600001900198002803D00198052800D00324B7
:10F7700000BF0020009010980078002801D00120E0
:10F7800000E000200346002C01D1012000E0002011
:10F7900002463146079803F067FF20460BB0F0BDE4
:10F7A000F3B583B0074601F091FD05461C4885423C
:10F7B00020D001AB01220721284601F0DFFD0446DD
:10F7C000002C04D10721284601F020FF0446002C1C
:10F7D00003D1384604997EDF0446002C0BD0072164
:10F7E000284601F06FFE0646002E02D0052E00D0FE
:10F7F000032400E003240A48854201D0012000E0F0
:10F8000000200090002C01D1012000E000200246E1
:10F8100001232946384603F027FF204605B0F0BDF6
:10F82000FFFF0000F8B507460C4615461148017861
:10F830003846FDF74FF800281AD03846FFF75CFC31
:10F8400006460D48864212D00C4801783846FDF72E
:10F8500041F8002806D02B4622463146384601F0B2
:10F86000B1FB04E02A4621463846FEF791F800BF76
:10F87000F8BD0000CA200020FFFF0000CB200020C0
:10F88000F0B589B005462846FDF716F808900898A7
:10F8900003F04DFD00282CD003A8FCF769FF0024DD
:10F8A00023E0620004A9885A2946FDF713F80646AA
:10F8B000002E19D0620004A9885A0F490978FDF773
:10F8C00009F80290620004A9885A0C490978FDF7EA
:10F8D00001F80190620004A9885A0123029A019953
:10F8E000FFF72EFE074600BF641C0398A042D8D83D
:10F8F00000BF09B0F0BD0000DE200020DF200020A6
:10F9000070B504460D46294620467EDF0646304641
:10F9100070BD000070B51C4804781C48066826E0DD
:10F9200019484168182060430D18601CC4B216487D
:10F930008078A04200D100242878022802D0032831
:10F9400012D103E0686804F0DBFC0EE007E00F4929
:10F950000868002101740D4AC169116000BF0B489D
:10F9600000680028F3D100E000BF00BF00BF0648D8
:10F970004078A042D4D105480068B04201D00120AF
:10F9800070BD0020FCE70000FC20002004210020C6
:10F99000F8B50546374806685BE0002D02D02C46D6
:10F9A000E56929E034494A68097818235943501811
:10F9B00031490978491C304A11701146097892780A
:10F9C000914202D100212C4A11704468017801292A
:10F9D00002D1217C002900D03BE081686160C168D0
:10F9E000A1600169E1604169A161244909780029A8
:10F9F00001D00021616000BF214960680968401A98
:10FA00000002000A1F49884208D21D49606809683F
:10FA100004F0EAFBA168401820600FE01848616814
:10FA2000006804F0E1FB0746A068B84203D9A0686B
:10FA3000C01B206001E00020206000BF002060604B
:10FA4000A060012020740020E061204604F022FC28
:10FA500000BF002DA1D108480078074949788842A5
:10FA60009BD104480068B04201D00120F8BD0020BD
:10FA7000FCE7000004210020FC2000201D210020C4
:10FA800008210020FFFF7F00FEB504460026234822
:10FA9000844200D1FEBD2046FFF7A0F80546002DA8
:10FAA00008D00B2D15D0112D11D01D482818002875
:10FAB0001DD11BE00221684601702046FFF71CFBA8
:10FAC0000146684641808480FEF70CF81DE001265F
:10FAD0001BE00321684601702046FFF70DFB01463D
:10FAE000684641808480FDF7FDFF0EE00DE00921AE
:10FAF000684601702046FFF7FFFA014668464180DC
:10FB000084800295FDF7EEFF00BF00BF3246054836
:10FB100001782046FCF7F2FE00BFBBE7FFFF0000C4
:10FB2000FECFFFFF86200020FEB5044600262046BB
:10FB3000FFF7A2F80546112D1AD004DC002D09D0DC
:10FB40000C2D31D116E0862D21D02248281800280E
:10FB50002AD10CE001216846017084802046FFF71D
:10FB6000CBFA694648806846FDF7BCFF2AE029E0E9
:10FB7000012627E007216846017084802046FFF7B0
:10FB8000BBFA694648806846FDF7ACFF1AE00821D9
:10FB90006846017084802046FFF7AEFA69464880C7
:10FBA0006846FDF79FFF0DE0092168460170204679
:10FBB000FFF7A2FA01466846418084800295FDF76E
:10FBC00091FF00BF00BF3246034801782046FCF792
:10FBD00095FEFEBDFECFFFFF85200020F8B5044650
:10FBE0000D46002620782840002810D10090684655
:10FBF000FCF7DEF920782840002803D1207828433C
:10FC00002070012668460078FCF7FCF900BF3046FA
:10FC1000F8BD002400BF2546002D04D000BF2846B3
:10FC2000FBF7D8FF00BF00BF04F0C4FD04F040FCA8
:10FC3000FDF714F8304601F0E7FFFEF7C3FC03F0D0
:10FC4000B1FEFBF72FFFFDF7FFFCFCF725FA0320C1
:10FC5000FCF778FC044600BF2546002D04D000BF09
:10FC60002846FBF7B7FF00BF00BF00BF02F0D2FD80
:10FC7000FCE7FFB581B005460E461446A888871CF0
:10FC80002088801CC1190498814202D90C2005B03B
:10FC9000F0BDFE2F01D90C20F9E7781C21887054A3
:10FCA0002088401C2080FF20218870542088401C20
:10FCB000208022889119288804F05CFE2188401851
:10FCC0002080A88800280EDDA868002801D1072020
:10FCD000DDE7AA8823889819A968FBF741FA2088EC
:10FCE000A988401820800020D1E7FFB583B00546E1
:10FCF0000F4614462878012805D16878002802D1DB
:10FD0000072007B0F0BD2088801C0699884209D8DA
:10FD10002878012808D12088801C69784118069825
:10FD2000814201D90C20ECE721880698401A801EF8
:10FD300086B201962188891CC81901A97DDF02902D
:10FD400000BF0298002801D00298DAE700BF2878A7
:10FD5000022806D168468088B04202DC0920009063
:10FD60000BE0082000902878012805D16878B0427F
:10FD700002DC6878019000E0019668468088FE28E1
:10FD800001D90C20BDE768468088401C2188785442
:10FD90002088401C20802188009878542088401CAE
:10FDA0002080218868468088081820800020A8E7E5
:10FDB00070B505460E46FF24002E26D01448854215
:10FDC00023D00122134801782846FCF797FD2846E6
:10FDD000FEF7A6FE0446FF2C02D1FEF7BFFE044646
:10FDE000FF2C12D00C2060430B49401845800021A5
:10FDF000C9430C206043084A11520C216143891801
:10FE0000081D07223146FBF7ABF9204670BD000004
:10FE1000FFFF0000972000202427002070B5054632
:10FE20000E460B48854201D1002000E0681C84B2D8
:10FE300009E02146304602F0A9F9002801D0204609
:10FE400070BD601C84B2FF2CF3DD0148F8E70000B0
:10FE5000FFFF0000014604480088814201DA481C87
:10FE600000E00020C0B27047F820002030B5024604
:10FE70000B46D4085207520F012090401D5D2840C8
:10FE800030BD01460120800708180068002801D015
:10FE9000012070470020FCE7002101229207821810
:10FEA00011607047014988607047000000030040FE
:10FEB000002800D1704700BF00BF00BF00BF00BFD7
:10FEC00000BF00BF00BF00BF07490968074A914251
:10FED00000D101E000BF00BF01460139084600D053
:10FEE000EAE700BFE6E70000702100200024F400EC
:10FEF000F8B504460D46164600271648006804214A
:10FF00000840002824D01348006802210840002837
:10FF100001D00A20F8BD0F480068012108430D49AF
:10FF20000860AAB2334621460B48FEF7CFF90746D0
:10FF3000002F07D0074800684008400005490860C6
:10FF40003846E7E703480068012108430149086093
:10FF50003846DFE7102000207421002001460420ED
:10FF6000014A10600020704710200020FFB581B0CA
:10FF700004460D461E460027144800680421084028
:10FF8000002821D01148006802210840002802D032
:10FF90000A2005B0F0BD0D480068012108430B4957
:10FFA00008600096039883B22A4621460848FEF767
:10FFB00083FA0746002F01D03846EAE70348006875
:10FFC00001210843014908603846E2E7102000207B
:10FFD0007421002010B5002258210248FDF706FCCC
:10FFE00010BD0000542B002070B50020154908708A
:10FFF000FF225D3214491548FBF7B2F81348006838
:020000040002F8
:10000000401C002807D0FFF7E5FF04460F480068B2
:10001000A04200D170BDFF215D310C48FBF7B9F85B
:1000200001200A49486000BF002000F011F8054691
:10003000002D04D000BF2846FBF7CCFD00BF00BF59
:1000400000BFE7E7E420002000FC0300502B002065
:1000500070B50546002404F0E3FD0120194908703D
:100060001948056000BF04F0E7FD00220121174890
:10007000FFF73EFF0446072CF5D0002C04D00020EB
:1000800010490870032070BDFFF7A4FF10490860F5
:10009000FF225D320F48FBF763F800BF04F0CCFD90
:1000A0000D4B57220B490948FFF760FF0446072C08
:1000B000F4D0002C04D00020024908700320E2E7AD
:1000C0000020E0E7E4200020E820002000FC0300FE
:1000D000502B0020AC2C0020DDD8010010B50024EE
:1000E00017480078002801D0852427E00020144913
:1000F000886048600861C86000BF00BF410989008E
:10010000104A89180968012282401140002901D053
:10011000012100E00021002903D10321002000F08B
:1001200037F800BF04F022F8002804D10120064966
:10013000886100BF00BF012001490870204610BD42
:10014000082E002000E100E00005004008B5002076
:1001500000906846FBF72CFF08480078002801D182
:10016000FFF7BCFF0548C068401C0449C860012077
:10017000887068460078FBF745FF08BD082E002010
:1001800010B50446002C01D1FDF792F910BD000016
:1001900070B504460D4629462046FBF7BFF900BF5F
:1001A000E106C90E012088400549086000BF00BF74
:1001B000E106C90E012088400249086000BF70BDF9
:1001C00080E200E000E100E001460803020E50B2C8
:1001D00070470000FEB505460E46174628791C21DB
:1001E00048432049441800200290E07E002803D0B4
:1001F000082002900298FEBD31462846FBF74DFFCD
:100200006760306920606068002818D0307F0190F6
:10021000FF211D31286800F03AFAFF214531286896
:1002200000F035FA1049286800F042FA2868FFF714
:10023000CBFF00900199FFF7ABFF00BF00BF00BFED
:1002400028680421052212028218116000BF00BF35
:100250000020E0752076A0750120E0760020A076D1
:100260000298C8E7642E002080000200FEB5054613
:100270000E46174628791C21484318494418002087
:1002800000906068002804D081218900286800F06F
:100290000AFAE07D002810D0207E00280BD060688C
:1002A000002804D081218900286800F001FA11207B
:1002B00001900198FEBD012000900098002804D113
:1002C000E775E6606076207601E0266127763A469B
:1002D00031462846009B00F01BF8EBE7642E002017
:1002E00010B5044620791C21484308494018807EF7
:1002F000002809D1204602F0ABFF012120791C2201
:100300005043024A8018817610BD0000642E002000
:10031000FFB583B0044620791C2148433049451875
:10032000A87E002805D10698002802D1204602F0B8
:100330008FFF686800284AD1FF214531206800F00E
:10034000A6F900BF00BFFF212531206800F097F912
:100350000190FF210931206800F091F90290FF21FE
:100360004531206800F08BF906460298002804D138
:10037000002E02D101980028E5D00198002801D173
:10038000002E00D007E02946206802F007FEE87D35
:10039000697E8842D6DC00BF0020E87501980028FD
:1003A00003D00327384607B0F0BD002E02D00F2738
:1003B0003846F8E7A87E002804D00021206800F025
:1003C00088F903E00421206800F083F904E081212A
:1003D0008900206800F06CF900273846E3E7000048
:1003E000642E0020F8B505460E46174628791C21D4
:1003F000484309494418284600F05CF8002803D017
:10040000112000900098F8BDA775A6600020A0827A
:10041000284600F003F8F6E7642E002070B5044685
:1004200020791C214843224945180026FF211D310F
:10043000206800F02CF90821206800F04AF92946CC
:10044000206804F04DF8686800282FD115E000BF3F
:10045000FF211D31206800F012F9002804D1A88A7C
:10046000FF2101318842F3D1A88AFF21013188425E
:1004700003D02946206804F033F8A88AA97D884271
:10048000E5DBA88AFF210131884201D10F260BE06C
:1004900000BFFF211D31206800F0F1F80028F8D0DE
:1004A0000C21206800F015F90020A875304670BDB9
:1004B000642E0020014608791C225043044A80180B
:1004C000807D002801D0012070470020FCE700005B
:1004D000642E0020F0B500BF05252D072C465500E1
:1004E0000D439E003543059E36023543069E360475
:1004F0003543860007273F02E719BD51F0BD7CB5A3
:1005000005460C4600200090234602460146019015
:100510002846FFF7DFFF7CBD1CB504460020009095
:1005200003460122114601902046FFF7D3FF1CBD70
:1005300030B50A4600BF05231B0719468300072470
:1005400024020C19E35803242404A3438400072540
:100550002D024D192B518300072424020C19E35856
:1005600014042343840007252D024D192B5130BD5F
:1005700030B50A4600BF05231B0719468300072430
:1005800024020C19E35803242404A3438400072500
:100590002D024D192B518300072424020C19E35816
:1005A00014042343840007252D024D192B5130BD1F
:1005B00000BF052109070A460121814005231B02CE
:1005C000D318996000BF704710B500290DD100BF46
:1005D00000BF05221207134601228240052424028F
:1005E0001C19E26000BF00BF0DE000BF00BF052284
:1005F0001207134601228240052424021C19A2601E
:1006000000BF00BF00BF10BD78B50B46094C246881
:100610000094014609E08D006E46745905252D02AF
:1006200065192D691560121D491CC4188C42F2D839
:1006300078BD0000DC5002000146014808187047F0
:100640000060004010B504462046FFF7F5FF00218A
:10065000016010BD10B504462046FFF7EDFF0068AD
:10066000012800D110BD0020FCE701460922D2017B
:100670008A1810680922D2018A1810607047024651
:100680005058002801D0012070470020FCE70022CC
:100690004250704705231B02C318996005231B02B3
:1006A000C3181A61704703221202821891607047C2
:1006B0000322120282185160704702460320000292
:1006C000101840680840002801D001207047002021
:1006D000FCE701224250704705231B02C3185A61F0
:1006E00005231B02C318D9607047F8B507460D46AD
:1006F0001646002406E000BF285DFBF737FC002803
:10070000FAD1641CB442F6D300BF0D20FBF72EFCD7
:100710000028FAD100BF0A20FBF728FC0028FAD1F4
:10072000F8BD70B50546002D10D0032D11D1022063
:10073000FCF75EFC044600BF2646002E04D000BF36
:100740003046FBF747FA00BF00BF03E003F0F2F9C1
:1007500000E000BF00BF70BD70B588B00546002442
:1007600028883A282DD006DC022848D0102816D038
:1007700011286FD104E0512850D05528F9D12FE02D
:100780000020FCF735FC044600BF2646002E04D0AE
:1007900000BF3046FBF71EFA00BF00BF71E0072024
:1007A000FCF726FC044600BF2646002E04D000BFFE
:1007B0003046FBF70FFA00BF00BFA8883249088017
:1007C0005FE0A888132176DF044600BF2646002E8E
:1007D00004D000BF3046FBF7FDF900BF00BF50E07A
:1007E000A888132176DF044600BF2646002E04D0D9
:1007F00000BF3046FBF7EEF900BF00BF41E0A8881C
:10080000002167DF044600BF2646002E04D000BF4B
:100810003046FBF7DFF900BF00BF32E01022A91D10
:1008200004A8FAF79DFC6846007C002827D004A89D
:10083000007A042807D004A8007A062803D004A868
:10084000007A05281BD16846007C022803D169463E
:10085000087003E014E0012069460870FF2083302F
:1008600069468880A888A8DF044600BF2646002E77
:1008700004D000BF3046FBF7ADF900BF00BF00E079
:1008800000BF00BF08B070BD0820002070B505464D
:10089000287800280ED13B210748008876DF0446DF
:1008A00000BF2646002E04D000BF3046FBF792F969
:1008B00000BF00BF70BD00000820002010B5044636
:1008C0000822A1180248FAF74BFCFCF7E9FE10BD1C
:1008D0007020002010B50446A0880949088008222D
:1008E000214618310748FAF73BFC002006490870FA
:1008F0000648C089002801D1FCF7D2FE10BD0000D7
:100900006E200020702000206C200020B4260020E3
:100910008A88828070478A8882827047817D012917
:1009200002D18188014A11807047000044200020D4
:10093000F0B585B005460C460427002000900190D4
:1009400002900390022069460870A87B002806D018
:1009500001216846817100206946888003E0FF20FC
:10096000FE306946888000BFA8886946A8DF064631
:10097000112EF9D068468088002801D005B0F0BD5E
:10098000207B012801D1012701E0022700BF00BF21
:10099000217B3A46284602F07FFA012F05D1207BC1
:1009A000012802D12846FDF70DF800BFE6E7000058
:1009B00070B505460020C0430A49088000200A4956
:1009C00008700A480068FBF715FA0446002C07D0A7
:1009D00007488069002803D0054881692046884778
:1009E00070BD00006E2000206C20002038500200F6
:1009F000B426002082888B889A4200D0704700225B
:100A0000D2438280027D002A17D000BF00BF00BF02
:100A100000BF00BFBFF34F8F00BF00BF00BF084A39
:100A2000084BDA6000BF00BF00BFBFF34F8F00BFAD
:100A300000BF00BF00BF00BFFDE700BFDEE7000052
:100A40000400FA0500ED00E00022D24382827047E4
:100A500070B5054600200B490870A8880A49098826
:100A600088420DD10120FBF76DFD0446002C07D014
:100A700006480068002803D02046044909688847D2
:100A800070BD000050200020442000204C20002099
:100A900010B5044608480078401CC0B206490870EA
:100AA000032807DD002008700821204602F041FEDF
:100AB00001F0E2FE10BD00004721002070B50446A1
:100AC00000201B490870207A012802D002282BD16F
